{
  "contracts/MarketplaceV1.sol": {
    "MarketplaceV1": {
      "abi": [
        {
          "anonymous": false,
          "inputs": [
            {
              "indexed": true,
              "internalType": "address",
              "name": "previousOwner",
              "type": "address"
            },
            {
              "indexed": true,
              "internalType": "address",
              "name": "newOwner",
              "type": "address"
            }
          ],
          "name": "OwnershipTransferred",
          "type": "event"
        },
        {
          "inputs": [
            {
              "internalType": "uint256",
              "name": "_id",
              "type": "uint256"
            },
            {
              "internalType": "uint256",
              "name": "_amount",
              "type": "uint256"
            }
          ],
          "name": "buyWithDai",
          "outputs": [],
          "stateMutability": "payable",
          "type": "function"
        },
        {
          "inputs": [
            {
              "internalType": "uint256",
              "name": "_id",
              "type": "uint256"
            }
          ],
          "name": "buyWithEther",
          "outputs": [],
          "stateMutability": "payable",
          "type": "function"
        },
        {
          "inputs": [
            {
              "internalType": "uint256",
              "name": "_id",
              "type": "uint256"
            },
            {
              "internalType": "uint256",
              "name": "_amount",
              "type": "uint256"
            }
          ],
          "name": "buyWithLink",
          "outputs": [],
          "stateMutability": "payable",
          "type": "function"
        },
        {
          "inputs": [
            {
              "internalType": "uint256",
              "name": "_id",
              "type": "uint256"
            }
          ],
          "name": "cancellOffer",
          "outputs": [],
          "stateMutability": "nonpayable",
          "type": "function"
        },
        {
          "inputs": [],
          "name": "fee",
          "outputs": [
            {
              "internalType": "uint256",
              "name": "",
              "type": "uint256"
            }
          ],
          "stateMutability": "view",
          "type": "function"
        },
        {
          "inputs": [],
          "name": "getDaiPrice",
          "outputs": [
            {
              "internalType": "int256",
              "name": "",
              "type": "int256"
            }
          ],
          "stateMutability": "view",
          "type": "function"
        },
        {
          "inputs": [],
          "name": "getEthPrice",
          "outputs": [
            {
              "internalType": "int256",
              "name": "",
              "type": "int256"
            }
          ],
          "stateMutability": "view",
          "type": "function"
        },
        {
          "inputs": [],
          "name": "getLinkPrice",
          "outputs": [
            {
              "internalType": "int256",
              "name": "",
              "type": "int256"
            }
          ],
          "stateMutability": "view",
          "type": "function"
        },
        {
          "inputs": [
            {
              "internalType": "address",
              "name": "_recipient",
              "type": "address"
            }
          ],
          "name": "initialize",
          "outputs": [],
          "stateMutability": "nonpayable",
          "type": "function"
        },
        {
          "inputs": [],
          "name": "offerCount",
          "outputs": [
            {
              "internalType": "uint256",
              "name": "",
              "type": "uint256"
            }
          ],
          "stateMutability": "view",
          "type": "function"
        },
        {
          "inputs": [
            {
              "internalType": "uint256",
              "name": "",
              "type": "uint256"
            }
          ],
          "name": "offers",
          "outputs": [
            {
              "internalType": "address",
              "name": "owner",
              "type": "address"
            },
            {
              "internalType": "address",
              "name": "tokenAdress",
              "type": "address"
            },
            {
              "internalType": "uint256",
              "name": "tokenId",
              "type": "uint256"
            },
            {
              "internalType": "uint256",
              "name": "amount",
              "type": "uint256"
            },
            {
              "internalType": "uint32",
              "name": "deadline",
              "type": "uint32"
            },
            {
              "internalType": "uint32",
              "name": "usdPrice",
              "type": "uint32"
            },
            {
              "internalType": "bool",
              "name": "onSale",
              "type": "bool"
            }
          ],
          "stateMutability": "view",
          "type": "function"
        },
        {
          "inputs": [],
          "name": "owner",
          "outputs": [
            {
              "internalType": "address",
              "name": "",
              "type": "address"
            }
          ],
          "stateMutability": "view",
          "type": "function"
        },
        {
          "inputs": [
            {
              "internalType": "address",
              "name": "_tokenAdress",
              "type": "address"
            },
            {
              "internalType": "uint256",
              "name": "_tokenId",
              "type": "uint256"
            },
            {
              "internalType": "uint256",
              "name": "_amount",
              "type": "uint256"
            },
            {
              "internalType": "uint32",
              "name": "_deadline",
              "type": "uint32"
            },
            {
              "internalType": "uint32",
              "name": "_usdPrice",
              "type": "uint32"
            }
          ],
          "name": "placeOffer",
          "outputs": [],
          "stateMutability": "payable",
          "type": "function"
        },
        {
          "inputs": [],
          "name": "recipient",
          "outputs": [
            {
              "internalType": "address",
              "name": "",
              "type": "address"
            }
          ],
          "stateMutability": "view",
          "type": "function"
        },
        {
          "inputs": [],
          "name": "renounceOwnership",
          "outputs": [],
          "stateMutability": "nonpayable",
          "type": "function"
        },
        {
          "inputs": [
            {
              "internalType": "address",
              "name": "newOwner",
              "type": "address"
            }
          ],
          "name": "transferOwnership",
          "outputs": [],
          "stateMutability": "nonpayable",
          "type": "function"
        },
        {
          "inputs": [
            {
              "internalType": "uint256",
              "name": "_newFee",
              "type": "uint256"
            }
          ],
          "name": "updateFee",
          "outputs": [],
          "stateMutability": "nonpayable",
          "type": "function"
        },
        {
          "inputs": [
            {
              "internalType": "address",
              "name": "_newRecipient",
              "type": "address"
            }
          ],
          "name": "updateRecipient",
          "outputs": [],
          "stateMutability": "nonpayable",
          "type": "function"
        }
      ],
      "evm": {
        "bytecode": {
          "linkReferences": {},
          "object": "608060405234801561001057600080fd5b50611d60806100206000396000f3fe6080604052600436106101095760003560e01c8063715018a611610095578063c4d66de811610064578063c4d66de814610272578063ddca3f4314610292578063f2fde38b146102a7578063f46f358e146102c7578063feec756c146102da57610109565b8063715018a6146101f55780638a72ea6a1461020a5780638da5cb5b1461023d5780639012c4a81461025257610109565b80633cc4af1d116100dc5780633cc4af1d14610178578063550b9c111461019857806366546222146101ab57806366d003ac146101be57806367c9b017146101e057610109565b80630c54449d1461010e5780631115c24d146101235780632649aa161461014e5780632dddd49c14610163575b600080fd5b61012161011c366004611630565b6102fa565b005b34801561012f57600080fd5b506101386104ca565b604051610145919061180e565b60405180910390f35b34801561015a57600080fd5b506101386104d0565b34801561016f57600080fd5b50610138610564565b34801561018457600080fd5b506101216101933660046116a6565b6105b5565b6101216101a63660046116a6565b61062b565b6101216101b93660046116d6565b6109fe565b3480156101ca57600080fd5b506101d3610e4a565b604051610145919061173d565b3480156101ec57600080fd5b50610138610e59565b34801561020157600080fd5b50610121610eaa565b34801561021657600080fd5b5061022a6102253660046116a6565b610ef5565b60405161014597969594939291906117c7565b34801561024957600080fd5b506101d3610f4f565b34801561025e57600080fd5b5061012161026d3660046116a6565b610f5e565b34801561027e57600080fd5b5061012161028d36600461160f565b610fa2565b34801561029e57600080fd5b506101386110d2565b3480156102b357600080fd5b506101216102c236600461160f565b6110d8565b6101216102d53660046116d6565b611149565b3480156102e657600080fd5b506101216102f536600461160f565b61150e565b60405163e985e9c560e01b815285906001600160a01b0382169063e985e9c59061032a9033903090600401611751565b60206040518083038186803b15801561034257600080fd5b505afa158015610356573d6000803e3d6000fd5b505050506040513d601f19601f8201168201806040525081019061037a9190611686565b61039f5760405162461bcd60e51b815260040161039690611aa1565b60405180910390fd5b609a80549060006103af83611ce3565b90915550506040805160e0810182523381526001600160a01b038816602082015290810186905260608101859052608081016103f163ffffffff861642611c53565b63ffffffff908116825293841660208083019190915260016040928301819052609a54600090815260998352839020845181546001600160a01b039182166001600160a01b03199182161783559386015192820180549390911692909316919091179091559082015160028201556060820151600382015560808201516004909101805460a084015160c0909401511515600160401b0260ff60401b199487166401000000000267ffffffff00000000199490971663ffffffff1990921691909117929092169490941791909116179091555050505050565b609a5481565b600080609e60009054906101000a90046001600160a01b03166001600160a01b031663feaf968c6040518163ffffffff1660e01b815260040160a06040518083038186803b15801561052157600080fd5b505afa158015610535573d6000803e3d6000fd5b505050506040513d601f19601f8201168201806040525081019061055991906116f7565b509194505050505090565b600080609f60009054906101000a90046001600160a01b03166001600160a01b031663feaf968c6040518163ffffffff1660e01b815260040160a06040518083038186803b15801561052157600080fd5b609a548111156105d75760405162461bcd60e51b815260040161039690611bae565b6000818152609960205260409020546001600160a01b0316331461060d5760405162461bcd60e51b815260040161039690611817565b6000908152609960205260409020600401805460ff60401b19169055565b6002606554141561064e5760405162461bcd60e51b815260040161039690611be5565b6002606555609a548111156106755760405162461bcd60e51b815260040161039690611bae565b600081815260996020526040902080546001600160a01b03163314156106ad5760405162461bcd60e51b81526004016103969061185c565b6004810154600160401b900460ff166106d85760405162461bcd60e51b815260040161039690611c1c565b600481015463ffffffff164211156107025760405162461bcd60e51b815260040161039690611a35565b6001810154815460405163e985e9c560e01b81526001600160a01b0392831692839263e985e9c59261073c92909116903090600401611751565b60206040518083038186803b15801561075457600080fd5b505afa158015610768573d6000803e3d6000fd5b505050506040513d601f19601f8201168201806040525081019061078c9190611686565b6107a85760405162461bcd60e51b815260040161039690611b2e565b600034116107c85760405162461bcd60e51b815260040161039690611af7565b60006107d2610e59565b60048401546107ef9190640100000000900463ffffffff16611c6b565b9050348111156108115760405162461bcd60e51b815260040161039690611b7f565b825460028401546003850154604051637921219560e11b81526001600160a01b038681169463f242432a9461085094929091169233929060040161178f565b600060405180830381600087803b15801561086a57600080fd5b505af115801561087e573d6000803e3d6000fd5b505084546098546001600160a01b039091169250606491506108a09084611cad565b6108aa9190611c99565b6108b49083611ccc565b6040516108c09061173a565b60006040518083038185875af1925050503d80600081146108fd576040519150601f19603f3d011682016040523d82523d6000602084013e610902565b606091505b50505060048301805460ff60401b191690556097546098546001600160a01b03909116906064906109339084611cad565b61093d9190611c99565b6040516109499061173a565b60006040518083038185875af1925050503d8060008114610986576040519150601f19603f3d011682016040523d82523d6000602084013e61098b565b606091505b505050803411156109f357336109a18234611ccc565b6040516109ad9061173a565b60006040518083038185875af1925050503d80600081146109ea576040519150601f19603f3d011682016040523d82523d6000602084013e6109ef565b606091505b5050505b505060016065555050565b60026065541415610a215760405162461bcd60e51b815260040161039690611be5565b6002606555609a54821115610a485760405162461bcd60e51b815260040161039690611bae565b600082815260996020526040902080546001600160a01b0316331415610a805760405162461bcd60e51b81526004016103969061185c565b6004810154600160401b900460ff16610aab5760405162461bcd60e51b815260040161039690611c1c565b600481015463ffffffff16421115610ad55760405162461bcd60e51b815260040161039690611a35565b6001810154815460405163e985e9c560e01b81526001600160a01b0392831692839263e985e9c592610b0f92909116903090600401611751565b60206040518083038186803b158015610b2757600080fd5b505afa158015610b3b573d6000803e3d6000fd5b505050506040513d601f19601f82011682018060405250810190610b5f9190611686565b610b7b5760405162461bcd60e51b815260040161039690611b2e565b609b54604051636eb1769f60e11b815284916001600160a01b03169063dd62ed3e90610bad9033903090600401611751565b60206040518083038186803b158015610bc557600080fd5b505afa158015610bd9573d6000803e3d6000fd5b505050506040513d601f19601f82011682018060405250810190610bfd91906116be565b1015610c1b5760405162461bcd60e51b815260040161039690611966565b6000610c256104d0565b6004840154610c429190640100000000900463ffffffff16611c6b565b905083811115610c645760405162461bcd60e51b8152600401610396906119fe565b825460028401546003850154604051637921219560e11b81526001600160a01b038681169463f242432a94610ca394929091169233929060040161178f565b600060405180830381600087803b158015610cbd57600080fd5b505af1158015610cd1573d6000803e3d6000fd5b5050609b5485546098546001600160a01b0392831694506323b872dd9350339290911690606490610d029087611cad565b610d0c9190611c99565b610d169086611ccc565b6040518463ffffffff1660e01b8152600401610d349392919061176b565b602060405180830381600087803b158015610d4e57600080fd5b505af1158015610d62573d6000803e3d6000fd5b505050506040513d601f19601f82011682018060405250810190610d869190611686565b5060048301805460ff60401b19169055609b546097546098546001600160a01b03928316926323b872dd923392911690606490610dc39087611cad565b610dcd9190611c99565b6040518463ffffffff1660e01b8152600401610deb9392919061176b565b602060405180830381600087803b158015610e0557600080fd5b505af1158015610e19573d6000803e3d6000fd5b505050506040513d601f19601f82011682018060405250810190610e3d9190611686565b5050600160655550505050565b6097546001600160a01b031681565b600080609d60009054906101000a90046001600160a01b03166001600160a01b031663feaf968c6040518163ffffffff1660e01b815260040160a06040518083038186803b15801561052157600080fd5b610eb261156f565b6001600160a01b0316610ec3610f4f565b6001600160a01b031614610ee95760405162461bcd60e51b815260040161039690611a6c565b610ef36000611573565b565b609960205260009081526040902080546001820154600283015460038401546004909401546001600160a01b03938416949390921692909163ffffffff80821691640100000000810490911690600160401b900460ff1687565b6033546001600160a01b031690565b610f6661156f565b6001600160a01b0316610f77610f4f565b6001600160a01b031614610f9d5760405162461bcd60e51b815260040161039690611a6c565b609855565b600054610100900460ff1680610fbb575060005460ff16155b610fd75760405162461bcd60e51b8152600401610396906119b0565b600054610100900460ff16158015611002576000805460ff1961ff0019909116610100171660011790555b609780546001600160a01b0384166001600160a01b0319918216179091556001609855609b80548216736b175474e89094c44da98b954eedeac495271d0f179055609c8054821673514910771af9ca656af840dff83e8264ecf986ca179055609d80548216735f4ec3df9cbd43714fe2740f5e3616155c5b8419179055609e8054821673aed0c38402a5d19df6e4c03f4e2dced6e29c1ee9179055609f8054909116732c1d072e956affc0d435cb7ac38ef18d24d9127c17905580156110ce576000805461ff00191690555b5050565b60985481565b6110e061156f565b6001600160a01b03166110f1610f4f565b6001600160a01b0316146111175760405162461bcd60e51b815260040161039690611a6c565b6001600160a01b03811661113d5760405162461bcd60e51b8152600401610396906118eb565b61114681611573565b50565b6002606554141561116c5760405162461bcd60e51b815260040161039690611be5565b6002606555609a548211156111935760405162461bcd60e51b815260040161039690611bae565b600082815260996020526040902080546001600160a01b03163314156111cb5760405162461bcd60e51b81526004016103969061185c565b6004810154600160401b900460ff166111f65760405162461bcd60e51b815260040161039690611c1c565b600481015463ffffffff164211156112205760405162461bcd60e51b815260040161039690611a35565b6001810154815460405163e985e9c560e01b81526001600160a01b0392831692839263e985e9c59261125a92909116903090600401611751565b60206040518083038186803b15801561127257600080fd5b505afa158015611286573d6000803e3d6000fd5b505050506040513d601f19601f820116820180604052508101906112aa9190611686565b6112c65760405162461bcd60e51b815260040161039690611b2e565b609c54604051636eb1769f60e11b815284916001600160a01b03169063dd62ed3e906112f89033903090600401611751565b60206040518083038186803b15801561131057600080fd5b505afa158015611324573d6000803e3d6000fd5b505050506040513d601f19601f8201168201806040525081019061134891906116be565b10156113665760405162461bcd60e51b8152600401610396906118a0565b6000611370610564565b600484015461138d9190640100000000900463ffffffff16611c6b565b9050838111156113af5760405162461bcd60e51b815260040161039690611931565b825460028401546003850154604051637921219560e11b81526001600160a01b038681169463f242432a946113ee94929091169233929060040161178f565b600060405180830381600087803b15801561140857600080fd5b505af115801561141c573d6000803e3d6000fd5b5050609c5485546098546001600160a01b0392831694506323b872dd935033929091169060649061144d9087611cad565b6114579190611c99565b6114619086611ccc565b6040518463ffffffff1660e01b815260040161147f9392919061176b565b602060405180830381600087803b15801561149957600080fd5b505af11580156114ad573d6000803e3d6000fd5b505050506040513d601f19601f820116820180604052508101906114d19190611686565b5060048301805460ff60401b19169055609c546097546098546001600160a01b03928316926323b872dd923392911690606490610dc39087611cad565b61151661156f565b6001600160a01b0316611527610f4f565b6001600160a01b03161461154d5760405162461bcd60e51b815260040161039690611a6c565b609780546001600160a01b0319166001600160a01b0392909216919091179055565b3390565b603380546001600160a01b038381166001600160a01b0319831681179093556040519116919082907f8be0079c531659141344cd1fd0a4f28419497f9722a3daafe3b4186f6b6457e090600090a35050565b80356001600160a01b03811681146115dc57600080fd5b919050565b803563ffffffff811681146115dc57600080fd5b805169ffffffffffffffffffff811681146115dc57600080fd5b600060208284031215611620578081fd5b611629826115c5565b9392505050565b600080600080600060a08688031215611647578081fd5b611650866115c5565b9450602086013593506040860135925061166c606087016115e1565b915061167a608087016115e1565b90509295509295909350565b600060208284031215611697578081fd5b81518015158114611629578182fd5b6000602082840312156116b7578081fd5b5035919050565b6000602082840312156116cf578081fd5b5051919050565b600080604083850312156116e8578182fd5b50508035926020909101359150565b600080600080600060a0868803121561170e578081fd5b611717866115f5565b945060208601519350604086015192506060860151915061167a608087016115f5565b90565b6001600160a01b0391909116815260200190565b6001600160a01b0392831681529116602082015260400190565b6001600160a01b039384168152919092166020820152604081019190915260600190565b6001600160a01b0394851681529290931660208301526040820152606081019190915260a06080820181905260009082015260c00190565b6001600160a01b0397881681529590961660208601526040850193909352606084019190915263ffffffff90811660808401521660a082015290151560c082015260e00190565b90815260200190565b60208082526025908201527f596f7520617265206e6f74207468652063726561746f72206f6620746869732060408201526437b33332b960d91b606082015260800190565b60208082526024908201527f5468652073656c6c65722063616e2774206265207468652062757965722061736040820152631dd95b1b60e21b606082015260800190565b6020808252602b908201527f416c6c6f77616e6365206973206e656564656420746f207370656e642074686560408201526a103634b735903a37b5b2b760a91b606082015260800190565b60208082526026908201527f4f776e61626c653a206e6577206f776e657220697320746865207a65726f206160408201526564647265737360d01b606082015260800190565b6020808252818101527f4e6f7420656e6f756768204c696e6b20746f206275792074686520746f6b656e604082015260600190565b6020808252602a908201527f416c6c6f77616e6365206973206e656564656420746f207370656e6420746865604082015269103230b4903a37b5b2b760b11b606082015260800190565b6020808252602e908201527f496e697469616c697a61626c653a20636f6e747261637420697320616c72656160408201526d191e481a5b9a5d1a585b1a5e995960921b606082015260800190565b6020808252601f908201527f4e6f7420656e6f7567682044616920746f206275792074686520746f6b656e00604082015260600190565b6020808252601d908201527f54686520646561646c696e6520686173206265656e2072656163686564000000604082015260600190565b6020808252818101527f4f776e61626c653a2063616c6c6572206973206e6f7420746865206f776e6572604082015260600190565b60208082526036908201527f417070726f76616c20697320726571756972656420746f207370656e6420746860408201527519481d1bdad95b9cc81d1bc81899481bd999995c995960521b606082015260800190565b6020808252601b908201527f596f752068617665206e6f742073656e7420616e792065746865720000000000604082015260600190565b60208082526031908201527f5468652073656c6c6572206861732072656d6f7665206170726f76616c20746f604082015270207370656e642074686520746f6b656e7360781b606082015260800190565b602080825260159082015274139bdd08195b9bdd59da08195d1a195c881cd95b9d605a1b604082015260600190565b60208082526017908201527f4f6666657220696420646f6573206e6f74206578697374000000000000000000604082015260600190565b6020808252601f908201527f5265656e7472616e637947756172643a207265656e7472616e742063616c6c00604082015260600190565b6020808252601d908201527f54686973206f6666657220686173206265656e2063616e63656c6c6564000000604082015260600190565b60008219821115611c6657611c66611cfe565b500190565b600082611c7a57611c7a611d14565b600160ff1b821460001984141615611c9457611c94611cfe565b500590565b600082611ca857611ca8611d14565b500490565b6000816000190483118215151615611cc757611cc7611cfe565b500290565b600082821015611cde57611cde611cfe565b500390565b6000600019821415611cf757611cf7611cfe565b5060010190565b634e487b7160e01b600052601160045260246000fd5b634e487b7160e01b600052601260045260246000fdfea2646970667358221220ac5e1e0791a93be1ccaf49dd4fd0143a8d8ba0e205a0a859b3fab9414a61f74464736f6c63430008000033",
          "opcodes": "PUSH1 0x80 PUSH1 0x40 MSTORE CALLVALUE DUP1 ISZERO PUSH2 0x10 JUMPI PUSH1 0x0 DUP1 REVERT JUMPDEST POP PUSH2 0x1D60 DUP1 PUSH2 0x20 PUSH1 0x0 CODECOPY PUSH1 0x0 RETURN INVALID PUSH1 0x80 PUSH1 0x40 MSTORE PUSH1 0x4 CALLDATASIZE LT PUSH2 0x109 JUMPI PUSH1 0x0 CALLDATALOAD PUSH1 0xE0 SHR DUP1 PUSH4 0x715018A6 GT PUSH2 0x95 JUMPI DUP1 PUSH4 0xC4D66DE8 GT PUSH2 0x64 JUMPI DUP1 PUSH4 0xC4D66DE8 EQ PUSH2 0x272 JUMPI DUP1 PUSH4 0xDDCA3F43 EQ PUSH2 0x292 JUMPI DUP1 PUSH4 0xF2FDE38B EQ PUSH2 0x2A7 JUMPI DUP1 PUSH4 0xF46F358E EQ PUSH2 0x2C7 JUMPI DUP1 PUSH4 0xFEEC756C EQ PUSH2 0x2DA JUMPI PUSH2 0x109 JUMP JUMPDEST DUP1 PUSH4 0x715018A6 EQ PUSH2 0x1F5 JUMPI DUP1 PUSH4 0x8A72EA6A EQ PUSH2 0x20A JUMPI DUP1 PUSH4 0x8DA5CB5B EQ PUSH2 0x23D JUMPI DUP1 PUSH4 0x9012C4A8 EQ PUSH2 0x252 JUMPI PUSH2 0x109 JUMP JUMPDEST DUP1 PUSH4 0x3CC4AF1D GT PUSH2 0xDC JUMPI DUP1 PUSH4 0x3CC4AF1D EQ PUSH2 0x178 JUMPI DUP1 PUSH4 0x550B9C11 EQ PUSH2 0x198 JUMPI DUP1 PUSH4 0x66546222 EQ PUSH2 0x1AB JUMPI DUP1 PUSH4 0x66D003AC EQ PUSH2 0x1BE JUMPI DUP1 PUSH4 0x67C9B017 EQ PUSH2 0x1E0 JUMPI PUSH2 0x109 JUMP JUMPDEST DUP1 PUSH4 0xC54449D EQ PUSH2 0x10E JUMPI DUP1 PUSH4 0x1115C24D EQ PUSH2 0x123 JUMPI DUP1 PUSH4 0x2649AA16 EQ PUSH2 0x14E JUMPI DUP1 PUSH4 0x2DDDD49C EQ PUSH2 0x163 JUMPI JUMPDEST PUSH1 0x0 DUP1 REVERT JUMPDEST PUSH2 0x121 PUSH2 0x11C CALLDATASIZE PUSH1 0x4 PUSH2 0x1630 JUMP JUMPDEST PUSH2 0x2FA JUMP JUMPDEST STOP JUMPDEST CALLVALUE DUP1 ISZERO PUSH2 0x12F JUMPI PUSH1 0x0 DUP1 REVERT JUMPDEST POP PUSH2 0x138 PUSH2 0x4CA JUMP JUMPDEST PUSH1 0x40 MLOAD PUSH2 0x145 SWAP2 SWAP1 PUSH2 0x180E JUMP JUMPDEST PUSH1 0x40 MLOAD DUP1 SWAP2 SUB SWAP1 RETURN JUMPDEST CALLVALUE DUP1 ISZERO PUSH2 0x15A JUMPI PUSH1 0x0 DUP1 REVERT JUMPDEST POP PUSH2 0x138 PUSH2 0x4D0 JUMP JUMPDEST CALLVALUE DUP1 ISZERO PUSH2 0x16F JUMPI PUSH1 0x0 DUP1 REVERT JUMPDEST POP PUSH2 0x138 PUSH2 0x564 JUMP JUMPDEST CALLVALUE DUP1 ISZERO PUSH2 0x184 JUMPI PUSH1 0x0 DUP1 REVERT JUMPDEST POP PUSH2 0x121 PUSH2 0x193 CALLDATASIZE PUSH1 0x4 PUSH2 0x16A6 JUMP JUMPDEST PUSH2 0x5B5 JUMP JUMPDEST PUSH2 0x121 PUSH2 0x1A6 CALLDATASIZE PUSH1 0x4 PUSH2 0x16A6 JUMP JUMPDEST PUSH2 0x62B JUMP JUMPDEST PUSH2 0x121 PUSH2 0x1B9 CALLDATASIZE PUSH1 0x4 PUSH2 0x16D6 JUMP JUMPDEST PUSH2 0x9FE JUMP JUMPDEST CALLVALUE DUP1 ISZERO PUSH2 0x1CA JUMPI PUSH1 0x0 DUP1 REVERT JUMPDEST POP PUSH2 0x1D3 PUSH2 0xE4A JUMP JUMPDEST PUSH1 0x40 MLOAD PUSH2 0x145 SWAP2 SWAP1 PUSH2 0x173D JUMP JUMPDEST CALLVALUE DUP1 ISZERO PUSH2 0x1EC JUMPI PUSH1 0x0 DUP1 REVERT JUMPDEST POP PUSH2 0x138 PUSH2 0xE59 JUMP JUMPDEST CALLVALUE DUP1 ISZERO PUSH2 0x201 JUMPI PUSH1 0x0 DUP1 REVERT JUMPDEST POP PUSH2 0x121 PUSH2 0xEAA JUMP JUMPDEST CALLVALUE DUP1 ISZERO PUSH2 0x216 JUMPI PUSH1 0x0 DUP1 REVERT JUMPDEST POP PUSH2 0x22A PUSH2 0x225 CALLDATASIZE PUSH1 0x4 PUSH2 0x16A6 JUMP JUMPDEST PUSH2 0xEF5 JUMP JUMPDEST PUSH1 0x40 MLOAD PUSH2 0x145 SWAP8 SWAP7 SWAP6 SWAP5 SWAP4 SWAP3 SWAP2 SWAP1 PUSH2 0x17C7 JUMP JUMPDEST CALLVALUE DUP1 ISZERO PUSH2 0x249 JUMPI PUSH1 0x0 DUP1 REVERT JUMPDEST POP PUSH2 0x1D3 PUSH2 0xF4F JUMP JUMPDEST CALLVALUE DUP1 ISZERO PUSH2 0x25E JUMPI PUSH1 0x0 DUP1 REVERT JUMPDEST POP PUSH2 0x121 PUSH2 0x26D CALLDATASIZE PUSH1 0x4 PUSH2 0x16A6 JUMP JUMPDEST PUSH2 0xF5E JUMP JUMPDEST CALLVALUE DUP1 ISZERO PUSH2 0x27E JUMPI PUSH1 0x0 DUP1 REVERT JUMPDEST POP PUSH2 0x121 PUSH2 0x28D CALLDATASIZE PUSH1 0x4 PUSH2 0x160F JUMP JUMPDEST PUSH2 0xFA2 JUMP JUMPDEST CALLVALUE DUP1 ISZERO PUSH2 0x29E JUMPI PUSH1 0x0 DUP1 REVERT JUMPDEST POP PUSH2 0x138 PUSH2 0x10D2 JUMP JUMPDEST CALLVALUE DUP1 ISZERO PUSH2 0x2B3 JUMPI PUSH1 0x0 DUP1 REVERT JUMPDEST POP PUSH2 0x121 PUSH2 0x2C2 CALLDATASIZE PUSH1 0x4 PUSH2 0x160F JUMP JUMPDEST PUSH2 0x10D8 JUMP JUMPDEST PUSH2 0x121 PUSH2 0x2D5 CALLDATASIZE PUSH1 0x4 PUSH2 0x16D6 JUMP JUMPDEST PUSH2 0x1149 JUMP JUMPDEST CALLVALUE DUP1 ISZERO PUSH2 0x2E6 JUMPI PUSH1 0x0 DUP1 REVERT JUMPDEST POP PUSH2 0x121 PUSH2 0x2F5 CALLDATASIZE PUSH1 0x4 PUSH2 0x160F JUMP JUMPDEST PUSH2 0x150E JUMP JUMPDEST PUSH1 0x40 MLOAD PUSH4 0xE985E9C5 PUSH1 0xE0 SHL DUP2 MSTORE DUP6 SWAP1 PUSH1 0x1 PUSH1 0x1 PUSH1 0xA0 SHL SUB DUP3 AND SWAP1 PUSH4 0xE985E9C5 SWAP1 PUSH2 0x32A SWAP1 CALLER SWAP1 ADDRESS SWAP1 PUSH1 0x4 ADD PUSH2 0x1751 JUMP JUMPDEST PUSH1 0x20 PUSH1 0x40 MLOAD DUP1 DUP4 SUB DUP2 DUP7 DUP1 EXTCODESIZE ISZERO DUP1 ISZERO PUSH2 0x342 JUMPI PUSH1 0x0 DUP1 REVERT JUMPDEST POP GAS STATICCALL ISZERO DUP1 ISZERO PUSH2 0x356 JUMPI RETURNDATASIZE PUSH1 0x0 DUP1 RETURNDATACOPY RETURNDATASIZE PUSH1 0x0 REVERT JUMPDEST POP POP POP POP PUSH1 0x40 MLOAD RETURNDATASIZE PUSH1 0x1F NOT PUSH1 0x1F DUP3 ADD AND DUP3 ADD DUP1 PUSH1 0x40 MSTORE POP DUP2 ADD SWAP1 PUSH2 0x37A SWAP2 SWAP1 PUSH2 0x1686 JUMP JUMPDEST PUSH2 0x39F JUMPI PUSH1 0x40 MLOAD PUSH3 0x461BCD PUSH1 0xE5 SHL DUP2 MSTORE PUSH1 0x4 ADD PUSH2 0x396 SWAP1 PUSH2 0x1AA1 JUMP JUMPDEST PUSH1 0x40 MLOAD DUP1 SWAP2 SUB SWAP1 REVERT JUMPDEST PUSH1 0x9A DUP1 SLOAD SWAP1 PUSH1 0x0 PUSH2 0x3AF DUP4 PUSH2 0x1CE3 JUMP JUMPDEST SWAP1 SWAP2 SSTORE POP POP PUSH1 0x40 DUP1 MLOAD PUSH1 0xE0 DUP2 ADD DUP3 MSTORE CALLER DUP2 MSTORE PUSH1 0x1 PUSH1 0x1 PUSH1 0xA0 SHL SUB DUP9 AND PUSH1 0x20 DUP3 ADD MSTORE SWAP1 DUP2 ADD DUP7 SWAP1 MSTORE PUSH1 0x60 DUP2 ADD DUP6 SWAP1 MSTORE PUSH1 0x80 DUP2 ADD PUSH2 0x3F1 PUSH4 0xFFFFFFFF DUP7 AND TIMESTAMP PUSH2 0x1C53 JUMP JUMPDEST PUSH4 0xFFFFFFFF SWAP1 DUP2 AND DUP3 MSTORE SWAP4 DUP5 AND PUSH1 0x20 DUP1 DUP4 ADD SWAP2 SWAP1 SWAP2 MSTORE PUSH1 0x1 PUSH1 0x40 SWAP3 DUP4 ADD DUP2 SWAP1 MSTORE PUSH1 0x9A SLOAD PUSH1 0x0 SWAP1 DUP2 MSTORE PUSH1 0x99 DUP4 MSTORE DUP4 SWAP1 KECCAK256 DUP5 MLOAD DUP2 SLOAD PUSH1 0x1 PUSH1 0x1 PUSH1 0xA0 SHL SUB SWAP2 DUP3 AND PUSH1 0x1 PUSH1 0x1 PUSH1 0xA0 SHL SUB NOT SWAP2 DUP3 AND OR DUP4 SSTORE SWAP4 DUP7 ADD MLOAD SWAP3 DUP3 ADD DUP1 SLOAD SWAP4 SWAP1 SWAP2 AND SWAP3 SWAP1 SWAP4 AND SWAP2 SWAP1 SWAP2 OR SWAP1 SWAP2 SSTORE SWAP1 DUP3 ADD MLOAD PUSH1 0x2 DUP3 ADD SSTORE PUSH1 0x60 DUP3 ADD MLOAD PUSH1 0x3 DUP3 ADD SSTORE PUSH1 0x80 DUP3 ADD MLOAD PUSH1 0x4 SWAP1 SWAP2 ADD DUP1 SLOAD PUSH1 0xA0 DUP5 ADD MLOAD PUSH1 0xC0 SWAP1 SWAP5 ADD MLOAD ISZERO ISZERO PUSH1 0x1 PUSH1 0x40 SHL MUL PUSH1 0xFF PUSH1 0x40 SHL NOT SWAP5 DUP8 AND PUSH5 0x100000000 MUL PUSH8 0xFFFFFFFF00000000 NOT SWAP5 SWAP1 SWAP8 AND PUSH4 0xFFFFFFFF NOT SWAP1 SWAP3 AND SWAP2 SWAP1 SWAP2 OR SWAP3 SWAP1 SWAP3 AND SWAP5 SWAP1 SWAP5 OR SWAP2 SWAP1 SWAP2 AND OR SWAP1 SWAP2 SSTORE POP POP POP POP POP JUMP JUMPDEST PUSH1 0x9A SLOAD DUP2 JUMP JUMPDEST PUSH1 0x0 DUP1 PUSH1 0x9E PUSH1 0x0 SWAP1 SLOAD SWAP1 PUSH2 0x100 EXP SWAP1 DIV PUSH1 0x1 PUSH1 0x1 PUSH1 0xA0 SHL SUB AND PUSH1 0x1 PUSH1 0x1 PUSH1 0xA0 SHL SUB AND PUSH4 0xFEAF968C PUSH1 0x40 MLOAD DUP2 PUSH4 0xFFFFFFFF AND PUSH1 0xE0 SHL DUP2 MSTORE PUSH1 0x4 ADD PUSH1 0xA0 PUSH1 0x40 MLOAD DUP1 DUP4 SUB DUP2 DUP7 DUP1 EXTCODESIZE ISZERO DUP1 ISZERO PUSH2 0x521 JUMPI PUSH1 0x0 DUP1 REVERT JUMPDEST POP GAS STATICCALL ISZERO DUP1 ISZERO PUSH2 0x535 JUMPI RETURNDATASIZE PUSH1 0x0 DUP1 RETURNDATACOPY RETURNDATASIZE PUSH1 0x0 REVERT JUMPDEST POP POP POP POP PUSH1 0x40 MLOAD RETURNDATASIZE PUSH1 0x1F NOT PUSH1 0x1F DUP3 ADD AND DUP3 ADD DUP1 PUSH1 0x40 MSTORE POP DUP2 ADD SWAP1 PUSH2 0x559 SWAP2 SWAP1 PUSH2 0x16F7 JUMP JUMPDEST POP SWAP2 SWAP5 POP POP POP POP POP SWAP1 JUMP JUMPDEST PUSH1 0x0 DUP1 PUSH1 0x9F PUSH1 0x0 SWAP1 SLOAD SWAP1 PUSH2 0x100 EXP SWAP1 DIV PUSH1 0x1 PUSH1 0x1 PUSH1 0xA0 SHL SUB AND PUSH1 0x1 PUSH1 0x1 PUSH1 0xA0 SHL SUB AND PUSH4 0xFEAF968C PUSH1 0x40 MLOAD DUP2 PUSH4 0xFFFFFFFF AND PUSH1 0xE0 SHL DUP2 MSTORE PUSH1 0x4 ADD PUSH1 0xA0 PUSH1 0x40 MLOAD DUP1 DUP4 SUB DUP2 DUP7 DUP1 EXTCODESIZE ISZERO DUP1 ISZERO PUSH2 0x521 JUMPI PUSH1 0x0 DUP1 REVERT JUMPDEST PUSH1 0x9A SLOAD DUP2 GT ISZERO PUSH2 0x5D7 JUMPI PUSH1 0x40 MLOAD PUSH3 0x461BCD PUSH1 0xE5 SHL DUP2 MSTORE PUSH1 0x4 ADD PUSH2 0x396 SWAP1 PUSH2 0x1BAE JUMP JUMPDEST PUSH1 0x0 DUP2 DUP2 MSTORE PUSH1 0x99 PUSH1 0x20 MSTORE PUSH1 0x40 SWAP1 KECCAK256 SLOAD PUSH1 0x1 PUSH1 0x1 PUSH1 0xA0 SHL SUB AND CALLER EQ PUSH2 0x60D JUMPI PUSH1 0x40 MLOAD PUSH3 0x461BCD PUSH1 0xE5 SHL DUP2 MSTORE PUSH1 0x4 ADD PUSH2 0x396 SWAP1 PUSH2 0x1817 JUMP JUMPDEST PUSH1 0x0 SWAP1 DUP2 MSTORE PUSH1 0x99 PUSH1 0x20 MSTORE PUSH1 0x40 SWAP1 KECCAK256 PUSH1 0x4 ADD DUP1 SLOAD PUSH1 0xFF PUSH1 0x40 SHL NOT AND SWAP1 SSTORE JUMP JUMPDEST PUSH1 0x2 PUSH1 0x65 SLOAD EQ ISZERO PUSH2 0x64E JUMPI PUSH1 0x40 MLOAD PUSH3 0x461BCD PUSH1 0xE5 SHL DUP2 MSTORE PUSH1 0x4 ADD PUSH2 0x396 SWAP1 PUSH2 0x1BE5 JUMP JUMPDEST PUSH1 0x2 PUSH1 0x65 SSTORE PUSH1 0x9A SLOAD DUP2 GT ISZERO PUSH2 0x675 JUMPI PUSH1 0x40 MLOAD PUSH3 0x461BCD PUSH1 0xE5 SHL DUP2 MSTORE PUSH1 0x4 ADD PUSH2 0x396 SWAP1 PUSH2 0x1BAE JUMP JUMPDEST PUSH1 0x0 DUP2 DUP2 MSTORE PUSH1 0x99 PUSH1 0x20 MSTORE PUSH1 0x40 SWAP1 KECCAK256 DUP1 SLOAD PUSH1 0x1 PUSH1 0x1 PUSH1 0xA0 SHL SUB AND CALLER EQ ISZERO PUSH2 0x6AD JUMPI PUSH1 0x40 MLOAD PUSH3 0x461BCD PUSH1 0xE5 SHL DUP2 MSTORE PUSH1 0x4 ADD PUSH2 0x396 SWAP1 PUSH2 0x185C JUMP JUMPDEST PUSH1 0x4 DUP2 ADD SLOAD PUSH1 0x1 PUSH1 0x40 SHL SWAP1 DIV PUSH1 0xFF AND PUSH2 0x6D8 JUMPI PUSH1 0x40 MLOAD PUSH3 0x461BCD PUSH1 0xE5 SHL DUP2 MSTORE PUSH1 0x4 ADD PUSH2 0x396 SWAP1 PUSH2 0x1C1C JUMP JUMPDEST PUSH1 0x4 DUP2 ADD SLOAD PUSH4 0xFFFFFFFF AND TIMESTAMP GT ISZERO PUSH2 0x702 JUMPI PUSH1 0x40 MLOAD PUSH3 0x461BCD PUSH1 0xE5 SHL DUP2 MSTORE PUSH1 0x4 ADD PUSH2 0x396 SWAP1 PUSH2 0x1A35 JUMP JUMPDEST PUSH1 0x1 DUP2 ADD SLOAD DUP2 SLOAD PUSH1 0x40 MLOAD PUSH4 0xE985E9C5 PUSH1 0xE0 SHL DUP2 MSTORE PUSH1 0x1 PUSH1 0x1 PUSH1 0xA0 SHL SUB SWAP3 DUP4 AND SWAP3 DUP4 SWAP3 PUSH4 0xE985E9C5 SWAP3 PUSH2 0x73C SWAP3 SWAP1 SWAP2 AND SWAP1 ADDRESS SWAP1 PUSH1 0x4 ADD PUSH2 0x1751 JUMP JUMPDEST PUSH1 0x20 PUSH1 0x40 MLOAD DUP1 DUP4 SUB DUP2 DUP7 DUP1 EXTCODESIZE ISZERO DUP1 ISZERO PUSH2 0x754 JUMPI PUSH1 0x0 DUP1 REVERT JUMPDEST POP GAS STATICCALL ISZERO DUP1 ISZERO PUSH2 0x768 JUMPI RETURNDATASIZE PUSH1 0x0 DUP1 RETURNDATACOPY RETURNDATASIZE PUSH1 0x0 REVERT JUMPDEST POP POP POP POP PUSH1 0x40 MLOAD RETURNDATASIZE PUSH1 0x1F NOT PUSH1 0x1F DUP3 ADD AND DUP3 ADD DUP1 PUSH1 0x40 MSTORE POP DUP2 ADD SWAP1 PUSH2 0x78C SWAP2 SWAP1 PUSH2 0x1686 JUMP JUMPDEST PUSH2 0x7A8 JUMPI PUSH1 0x40 MLOAD PUSH3 0x461BCD PUSH1 0xE5 SHL DUP2 MSTORE PUSH1 0x4 ADD PUSH2 0x396 SWAP1 PUSH2 0x1B2E JUMP JUMPDEST PUSH1 0x0 CALLVALUE GT PUSH2 0x7C8 JUMPI PUSH1 0x40 MLOAD PUSH3 0x461BCD PUSH1 0xE5 SHL DUP2 MSTORE PUSH1 0x4 ADD PUSH2 0x396 SWAP1 PUSH2 0x1AF7 JUMP JUMPDEST PUSH1 0x0 PUSH2 0x7D2 PUSH2 0xE59 JUMP JUMPDEST PUSH1 0x4 DUP5 ADD SLOAD PUSH2 0x7EF SWAP2 SWAP1 PUSH5 0x100000000 SWAP1 DIV PUSH4 0xFFFFFFFF AND PUSH2 0x1C6B JUMP JUMPDEST SWAP1 POP CALLVALUE DUP2 GT ISZERO PUSH2 0x811 JUMPI PUSH1 0x40 MLOAD PUSH3 0x461BCD PUSH1 0xE5 SHL DUP2 MSTORE PUSH1 0x4 ADD PUSH2 0x396 SWAP1 PUSH2 0x1B7F JUMP JUMPDEST DUP3 SLOAD PUSH1 0x2 DUP5 ADD SLOAD PUSH1 0x3 DUP6 ADD SLOAD PUSH1 0x40 MLOAD PUSH4 0x79212195 PUSH1 0xE1 SHL DUP2 MSTORE PUSH1 0x1 PUSH1 0x1 PUSH1 0xA0 SHL SUB DUP7 DUP2 AND SWAP5 PUSH4 0xF242432A SWAP5 PUSH2 0x850 SWAP5 SWAP3 SWAP1 SWAP2 AND SWAP3 CALLER SWAP3 SWAP1 PUSH1 0x4 ADD PUSH2 0x178F JUMP JUMPDEST PUSH1 0x0 PUSH1 0x40 MLOAD DUP1 DUP4 SUB DUP2 PUSH1 0x0 DUP8 DUP1 EXTCODESIZE ISZERO DUP1 ISZERO PUSH2 0x86A JUMPI PUSH1 0x0 DUP1 REVERT JUMPDEST POP GAS CALL ISZERO DUP1 ISZERO PUSH2 0x87E JUMPI RETURNDATASIZE PUSH1 0x0 DUP1 RETURNDATACOPY RETURNDATASIZE PUSH1 0x0 REVERT JUMPDEST POP POP DUP5 SLOAD PUSH1 0x98 SLOAD PUSH1 0x1 PUSH1 0x1 PUSH1 0xA0 SHL SUB SWAP1 SWAP2 AND SWAP3 POP PUSH1 0x64 SWAP2 POP PUSH2 0x8A0 SWAP1 DUP5 PUSH2 0x1CAD JUMP JUMPDEST PUSH2 0x8AA SWAP2 SWAP1 PUSH2 0x1C99 JUMP JUMPDEST PUSH2 0x8B4 SWAP1 DUP4 PUSH2 0x1CCC JUMP JUMPDEST PUSH1 0x40 MLOAD PUSH2 0x8C0 SWAP1 PUSH2 0x173A JUMP JUMPDEST PUSH1 0x0 PUSH1 0x40 MLOAD DUP1 DUP4 SUB DUP2 DUP6 DUP8 GAS CALL SWAP3 POP POP POP RETURNDATASIZE DUP1 PUSH1 0x0 DUP2 EQ PUSH2 0x8FD JUMPI PUSH1 0x40 MLOAD SWAP2 POP PUSH1 0x1F NOT PUSH1 0x3F RETURNDATASIZE ADD AND DUP3 ADD PUSH1 0x40 MSTORE RETURNDATASIZE DUP3 MSTORE RETURNDATASIZE PUSH1 0x0 PUSH1 0x20 DUP5 ADD RETURNDATACOPY PUSH2 0x902 JUMP JUMPDEST PUSH1 0x60 SWAP2 POP JUMPDEST POP POP POP PUSH1 0x4 DUP4 ADD DUP1 SLOAD PUSH1 0xFF PUSH1 0x40 SHL NOT AND SWAP1 SSTORE PUSH1 0x97 SLOAD PUSH1 0x98 SLOAD PUSH1 0x1 PUSH1 0x1 PUSH1 0xA0 SHL SUB SWAP1 SWAP2 AND SWAP1 PUSH1 0x64 SWAP1 PUSH2 0x933 SWAP1 DUP5 PUSH2 0x1CAD JUMP JUMPDEST PUSH2 0x93D SWAP2 SWAP1 PUSH2 0x1C99 JUMP JUMPDEST PUSH1 0x40 MLOAD PUSH2 0x949 SWAP1 PUSH2 0x173A JUMP JUMPDEST PUSH1 0x0 PUSH1 0x40 MLOAD DUP1 DUP4 SUB DUP2 DUP6 DUP8 GAS CALL SWAP3 POP POP POP RETURNDATASIZE DUP1 PUSH1 0x0 DUP2 EQ PUSH2 0x986 JUMPI PUSH1 0x40 MLOAD SWAP2 POP PUSH1 0x1F NOT PUSH1 0x3F RETURNDATASIZE ADD AND DUP3 ADD PUSH1 0x40 MSTORE RETURNDATASIZE DUP3 MSTORE RETURNDATASIZE PUSH1 0x0 PUSH1 0x20 DUP5 ADD RETURNDATACOPY PUSH2 0x98B JUMP JUMPDEST PUSH1 0x60 SWAP2 POP JUMPDEST POP POP POP DUP1 CALLVALUE GT ISZERO PUSH2 0x9F3 JUMPI CALLER PUSH2 0x9A1 DUP3 CALLVALUE PUSH2 0x1CCC JUMP JUMPDEST PUSH1 0x40 MLOAD PUSH2 0x9AD SWAP1 PUSH2 0x173A JUMP JUMPDEST PUSH1 0x0 PUSH1 0x40 MLOAD DUP1 DUP4 SUB DUP2 DUP6 DUP8 GAS CALL SWAP3 POP POP POP RETURNDATASIZE DUP1 PUSH1 0x0 DUP2 EQ PUSH2 0x9EA JUMPI PUSH1 0x40 MLOAD SWAP2 POP PUSH1 0x1F NOT PUSH1 0x3F RETURNDATASIZE ADD AND DUP3 ADD PUSH1 0x40 MSTORE RETURNDATASIZE DUP3 MSTORE RETURNDATASIZE PUSH1 0x0 PUSH1 0x20 DUP5 ADD RETURNDATACOPY PUSH2 0x9EF JUMP JUMPDEST PUSH1 0x60 SWAP2 POP JUMPDEST POP POP POP JUMPDEST POP POP PUSH1 0x1 PUSH1 0x65 SSTORE POP POP JUMP JUMPDEST PUSH1 0x2 PUSH1 0x65 SLOAD EQ ISZERO PUSH2 0xA21 JUMPI PUSH1 0x40 MLOAD PUSH3 0x461BCD PUSH1 0xE5 SHL DUP2 MSTORE PUSH1 0x4 ADD PUSH2 0x396 SWAP1 PUSH2 0x1BE5 JUMP JUMPDEST PUSH1 0x2 PUSH1 0x65 SSTORE PUSH1 0x9A SLOAD DUP3 GT ISZERO PUSH2 0xA48 JUMPI PUSH1 0x40 MLOAD PUSH3 0x461BCD PUSH1 0xE5 SHL DUP2 MSTORE PUSH1 0x4 ADD PUSH2 0x396 SWAP1 PUSH2 0x1BAE JUMP JUMPDEST PUSH1 0x0 DUP3 DUP2 MSTORE PUSH1 0x99 PUSH1 0x20 MSTORE PUSH1 0x40 SWAP1 KECCAK256 DUP1 SLOAD PUSH1 0x1 PUSH1 0x1 PUSH1 0xA0 SHL SUB AND CALLER EQ ISZERO PUSH2 0xA80 JUMPI PUSH1 0x40 MLOAD PUSH3 0x461BCD PUSH1 0xE5 SHL DUP2 MSTORE PUSH1 0x4 ADD PUSH2 0x396 SWAP1 PUSH2 0x185C JUMP JUMPDEST PUSH1 0x4 DUP2 ADD SLOAD PUSH1 0x1 PUSH1 0x40 SHL SWAP1 DIV PUSH1 0xFF AND PUSH2 0xAAB JUMPI PUSH1 0x40 MLOAD PUSH3 0x461BCD PUSH1 0xE5 SHL DUP2 MSTORE PUSH1 0x4 ADD PUSH2 0x396 SWAP1 PUSH2 0x1C1C JUMP JUMPDEST PUSH1 0x4 DUP2 ADD SLOAD PUSH4 0xFFFFFFFF AND TIMESTAMP GT ISZERO PUSH2 0xAD5 JUMPI PUSH1 0x40 MLOAD PUSH3 0x461BCD PUSH1 0xE5 SHL DUP2 MSTORE PUSH1 0x4 ADD PUSH2 0x396 SWAP1 PUSH2 0x1A35 JUMP JUMPDEST PUSH1 0x1 DUP2 ADD SLOAD DUP2 SLOAD PUSH1 0x40 MLOAD PUSH4 0xE985E9C5 PUSH1 0xE0 SHL DUP2 MSTORE PUSH1 0x1 PUSH1 0x1 PUSH1 0xA0 SHL SUB SWAP3 DUP4 AND SWAP3 DUP4 SWAP3 PUSH4 0xE985E9C5 SWAP3 PUSH2 0xB0F SWAP3 SWAP1 SWAP2 AND SWAP1 ADDRESS SWAP1 PUSH1 0x4 ADD PUSH2 0x1751 JUMP JUMPDEST PUSH1 0x20 PUSH1 0x40 MLOAD DUP1 DUP4 SUB DUP2 DUP7 DUP1 EXTCODESIZE ISZERO DUP1 ISZERO PUSH2 0xB27 JUMPI PUSH1 0x0 DUP1 REVERT JUMPDEST POP GAS STATICCALL ISZERO DUP1 ISZERO PUSH2 0xB3B JUMPI RETURNDATASIZE PUSH1 0x0 DUP1 RETURNDATACOPY RETURNDATASIZE PUSH1 0x0 REVERT JUMPDEST POP POP POP POP PUSH1 0x40 MLOAD RETURNDATASIZE PUSH1 0x1F NOT PUSH1 0x1F DUP3 ADD AND DUP3 ADD DUP1 PUSH1 0x40 MSTORE POP DUP2 ADD SWAP1 PUSH2 0xB5F SWAP2 SWAP1 PUSH2 0x1686 JUMP JUMPDEST PUSH2 0xB7B JUMPI PUSH1 0x40 MLOAD PUSH3 0x461BCD PUSH1 0xE5 SHL DUP2 MSTORE PUSH1 0x4 ADD PUSH2 0x396 SWAP1 PUSH2 0x1B2E JUMP JUMPDEST PUSH1 0x9B SLOAD PUSH1 0x40 MLOAD PUSH4 0x6EB1769F PUSH1 0xE1 SHL DUP2 MSTORE DUP5 SWAP2 PUSH1 0x1 PUSH1 0x1 PUSH1 0xA0 SHL SUB AND SWAP1 PUSH4 0xDD62ED3E SWAP1 PUSH2 0xBAD SWAP1 CALLER SWAP1 ADDRESS SWAP1 PUSH1 0x4 ADD PUSH2 0x1751 JUMP JUMPDEST PUSH1 0x20 PUSH1 0x40 MLOAD DUP1 DUP4 SUB DUP2 DUP7 DUP1 EXTCODESIZE ISZERO DUP1 ISZERO PUSH2 0xBC5 JUMPI PUSH1 0x0 DUP1 REVERT JUMPDEST POP GAS STATICCALL ISZERO DUP1 ISZERO PUSH2 0xBD9 JUMPI RETURNDATASIZE PUSH1 0x0 DUP1 RETURNDATACOPY RETURNDATASIZE PUSH1 0x0 REVERT JUMPDEST POP POP POP POP PUSH1 0x40 MLOAD RETURNDATASIZE PUSH1 0x1F NOT PUSH1 0x1F DUP3 ADD AND DUP3 ADD DUP1 PUSH1 0x40 MSTORE POP DUP2 ADD SWAP1 PUSH2 0xBFD SWAP2 SWAP1 PUSH2 0x16BE JUMP JUMPDEST LT ISZERO PUSH2 0xC1B JUMPI PUSH1 0x40 MLOAD PUSH3 0x461BCD PUSH1 0xE5 SHL DUP2 MSTORE PUSH1 0x4 ADD PUSH2 0x396 SWAP1 PUSH2 0x1966 JUMP JUMPDEST PUSH1 0x0 PUSH2 0xC25 PUSH2 0x4D0 JUMP JUMPDEST PUSH1 0x4 DUP5 ADD SLOAD PUSH2 0xC42 SWAP2 SWAP1 PUSH5 0x100000000 SWAP1 DIV PUSH4 0xFFFFFFFF AND PUSH2 0x1C6B JUMP JUMPDEST SWAP1 POP DUP4 DUP2 GT ISZERO PUSH2 0xC64 JUMPI PUSH1 0x40 MLOAD PUSH3 0x461BCD PUSH1 0xE5 SHL DUP2 MSTORE PUSH1 0x4 ADD PUSH2 0x396 SWAP1 PUSH2 0x19FE JUMP JUMPDEST DUP3 SLOAD PUSH1 0x2 DUP5 ADD SLOAD PUSH1 0x3 DUP6 ADD SLOAD PUSH1 0x40 MLOAD PUSH4 0x79212195 PUSH1 0xE1 SHL DUP2 MSTORE PUSH1 0x1 PUSH1 0x1 PUSH1 0xA0 SHL SUB DUP7 DUP2 AND SWAP5 PUSH4 0xF242432A SWAP5 PUSH2 0xCA3 SWAP5 SWAP3 SWAP1 SWAP2 AND SWAP3 CALLER SWAP3 SWAP1 PUSH1 0x4 ADD PUSH2 0x178F JUMP JUMPDEST PUSH1 0x0 PUSH1 0x40 MLOAD DUP1 DUP4 SUB DUP2 PUSH1 0x0 DUP8 DUP1 EXTCODESIZE ISZERO DUP1 ISZERO PUSH2 0xCBD JUMPI PUSH1 0x0 DUP1 REVERT JUMPDEST POP GAS CALL ISZERO DUP1 ISZERO PUSH2 0xCD1 JUMPI RETURNDATASIZE PUSH1 0x0 DUP1 RETURNDATACOPY RETURNDATASIZE PUSH1 0x0 REVERT JUMPDEST POP POP PUSH1 0x9B SLOAD DUP6 SLOAD PUSH1 0x98 SLOAD PUSH1 0x1 PUSH1 0x1 PUSH1 0xA0 SHL SUB SWAP3 DUP4 AND SWAP5 POP PUSH4 0x23B872DD SWAP4 POP CALLER SWAP3 SWAP1 SWAP2 AND SWAP1 PUSH1 0x64 SWAP1 PUSH2 0xD02 SWAP1 DUP8 PUSH2 0x1CAD JUMP JUMPDEST PUSH2 0xD0C SWAP2 SWAP1 PUSH2 0x1C99 JUMP JUMPDEST PUSH2 0xD16 SWAP1 DUP7 PUSH2 0x1CCC JUMP JUMPDEST PUSH1 0x40 MLOAD DUP5 PUSH4 0xFFFFFFFF AND PUSH1 0xE0 SHL DUP2 MSTORE PUSH1 0x4 ADD PUSH2 0xD34 SWAP4 SWAP3 SWAP2 SWAP1 PUSH2 0x176B JUMP JUMPDEST PUSH1 0x20 PUSH1 0x40 MLOAD DUP1 DUP4 SUB DUP2 PUSH1 0x0 DUP8 DUP1 EXTCODESIZE ISZERO DUP1 ISZERO PUSH2 0xD4E JUMPI PUSH1 0x0 DUP1 REVERT JUMPDEST POP GAS CALL ISZERO DUP1 ISZERO PUSH2 0xD62 JUMPI RETURNDATASIZE PUSH1 0x0 DUP1 RETURNDATACOPY RETURNDATASIZE PUSH1 0x0 REVERT JUMPDEST POP POP POP POP PUSH1 0x40 MLOAD RETURNDATASIZE PUSH1 0x1F NOT PUSH1 0x1F DUP3 ADD AND DUP3 ADD DUP1 PUSH1 0x40 MSTORE POP DUP2 ADD SWAP1 PUSH2 0xD86 SWAP2 SWAP1 PUSH2 0x1686 JUMP JUMPDEST POP PUSH1 0x4 DUP4 ADD DUP1 SLOAD PUSH1 0xFF PUSH1 0x40 SHL NOT AND SWAP1 SSTORE PUSH1 0x9B SLOAD PUSH1 0x97 SLOAD PUSH1 0x98 SLOAD PUSH1 0x1 PUSH1 0x1 PUSH1 0xA0 SHL SUB SWAP3 DUP4 AND SWAP3 PUSH4 0x23B872DD SWAP3 CALLER SWAP3 SWAP2 AND SWAP1 PUSH1 0x64 SWAP1 PUSH2 0xDC3 SWAP1 DUP8 PUSH2 0x1CAD JUMP JUMPDEST PUSH2 0xDCD SWAP2 SWAP1 PUSH2 0x1C99 JUMP JUMPDEST PUSH1 0x40 MLOAD DUP5 PUSH4 0xFFFFFFFF AND PUSH1 0xE0 SHL DUP2 MSTORE PUSH1 0x4 ADD PUSH2 0xDEB SWAP4 SWAP3 SWAP2 SWAP1 PUSH2 0x176B JUMP JUMPDEST PUSH1 0x20 PUSH1 0x40 MLOAD DUP1 DUP4 SUB DUP2 PUSH1 0x0 DUP8 DUP1 EXTCODESIZE ISZERO DUP1 ISZERO PUSH2 0xE05 JUMPI PUSH1 0x0 DUP1 REVERT JUMPDEST POP GAS CALL ISZERO DUP1 ISZERO PUSH2 0xE19 JUMPI RETURNDATASIZE PUSH1 0x0 DUP1 RETURNDATACOPY RETURNDATASIZE PUSH1 0x0 REVERT JUMPDEST POP POP POP POP PUSH1 0x40 MLOAD RETURNDATASIZE PUSH1 0x1F NOT PUSH1 0x1F DUP3 ADD AND DUP3 ADD DUP1 PUSH1 0x40 MSTORE POP DUP2 ADD SWAP1 PUSH2 0xE3D SWAP2 SWAP1 PUSH2 0x1686 JUMP JUMPDEST POP POP PUSH1 0x1 PUSH1 0x65 SSTORE POP POP POP POP JUMP JUMPDEST PUSH1 0x97 SLOAD PUSH1 0x1 PUSH1 0x1 PUSH1 0xA0 SHL SUB AND DUP2 JUMP JUMPDEST PUSH1 0x0 DUP1 PUSH1 0x9D PUSH1 0x0 SWAP1 SLOAD SWAP1 PUSH2 0x100 EXP SWAP1 DIV PUSH1 0x1 PUSH1 0x1 PUSH1 0xA0 SHL SUB AND PUSH1 0x1 PUSH1 0x1 PUSH1 0xA0 SHL SUB AND PUSH4 0xFEAF968C PUSH1 0x40 MLOAD DUP2 PUSH4 0xFFFFFFFF AND PUSH1 0xE0 SHL DUP2 MSTORE PUSH1 0x4 ADD PUSH1 0xA0 PUSH1 0x40 MLOAD DUP1 DUP4 SUB DUP2 DUP7 DUP1 EXTCODESIZE ISZERO DUP1 ISZERO PUSH2 0x521 JUMPI PUSH1 0x0 DUP1 REVERT JUMPDEST PUSH2 0xEB2 PUSH2 0x156F JUMP JUMPDEST PUSH1 0x1 PUSH1 0x1 PUSH1 0xA0 SHL SUB AND PUSH2 0xEC3 PUSH2 0xF4F JUMP JUMPDEST PUSH1 0x1 PUSH1 0x1 PUSH1 0xA0 SHL SUB AND EQ PUSH2 0xEE9 JUMPI PUSH1 0x40 MLOAD PUSH3 0x461BCD PUSH1 0xE5 SHL DUP2 MSTORE PUSH1 0x4 ADD PUSH2 0x396 SWAP1 PUSH2 0x1A6C JUMP JUMPDEST PUSH2 0xEF3 PUSH1 0x0 PUSH2 0x1573 JUMP JUMPDEST JUMP JUMPDEST PUSH1 0x99 PUSH1 0x20 MSTORE PUSH1 0x0 SWAP1 DUP2 MSTORE PUSH1 0x40 SWAP1 KECCAK256 DUP1 SLOAD PUSH1 0x1 DUP3 ADD SLOAD PUSH1 0x2 DUP4 ADD SLOAD PUSH1 0x3 DUP5 ADD SLOAD PUSH1 0x4 SWAP1 SWAP5 ADD SLOAD PUSH1 0x1 PUSH1 0x1 PUSH1 0xA0 SHL SUB SWAP4 DUP5 AND SWAP5 SWAP4 SWAP1 SWAP3 AND SWAP3 SWAP1 SWAP2 PUSH4 0xFFFFFFFF DUP1 DUP3 AND SWAP2 PUSH5 0x100000000 DUP2 DIV SWAP1 SWAP2 AND SWAP1 PUSH1 0x1 PUSH1 0x40 SHL SWAP1 DIV PUSH1 0xFF AND DUP8 JUMP JUMPDEST PUSH1 0x33 SLOAD PUSH1 0x1 PUSH1 0x1 PUSH1 0xA0 SHL SUB AND SWAP1 JUMP JUMPDEST PUSH2 0xF66 PUSH2 0x156F JUMP JUMPDEST PUSH1 0x1 PUSH1 0x1 PUSH1 0xA0 SHL SUB AND PUSH2 0xF77 PUSH2 0xF4F JUMP JUMPDEST PUSH1 0x1 PUSH1 0x1 PUSH1 0xA0 SHL SUB AND EQ PUSH2 0xF9D JUMPI PUSH1 0x40 MLOAD PUSH3 0x461BCD PUSH1 0xE5 SHL DUP2 MSTORE PUSH1 0x4 ADD PUSH2 0x396 SWAP1 PUSH2 0x1A6C JUMP JUMPDEST PUSH1 0x98 SSTORE JUMP JUMPDEST PUSH1 0x0 SLOAD PUSH2 0x100 SWAP1 DIV PUSH1 0xFF AND DUP1 PUSH2 0xFBB JUMPI POP PUSH1 0x0 SLOAD PUSH1 0xFF AND ISZERO JUMPDEST PUSH2 0xFD7 JUMPI PUSH1 0x40 MLOAD PUSH3 0x461BCD PUSH1 0xE5 SHL DUP2 MSTORE PUSH1 0x4 ADD PUSH2 0x396 SWAP1 PUSH2 0x19B0 JUMP JUMPDEST PUSH1 0x0 SLOAD PUSH2 0x100 SWAP1 DIV PUSH1 0xFF AND ISZERO DUP1 ISZERO PUSH2 0x1002 JUMPI PUSH1 0x0 DUP1 SLOAD PUSH1 0xFF NOT PUSH2 0xFF00 NOT SWAP1 SWAP2 AND PUSH2 0x100 OR AND PUSH1 0x1 OR SWAP1 SSTORE JUMPDEST PUSH1 0x97 DUP1 SLOAD PUSH1 0x1 PUSH1 0x1 PUSH1 0xA0 SHL SUB DUP5 AND PUSH1 0x1 PUSH1 0x1 PUSH1 0xA0 SHL SUB NOT SWAP2 DUP3 AND OR SWAP1 SWAP2 SSTORE PUSH1 0x1 PUSH1 0x98 SSTORE PUSH1 0x9B DUP1 SLOAD DUP3 AND PUSH20 0x6B175474E89094C44DA98B954EEDEAC495271D0F OR SWAP1 SSTORE PUSH1 0x9C DUP1 SLOAD DUP3 AND PUSH20 0x514910771AF9CA656AF840DFF83E8264ECF986CA OR SWAP1 SSTORE PUSH1 0x9D DUP1 SLOAD DUP3 AND PUSH20 0x5F4EC3DF9CBD43714FE2740F5E3616155C5B8419 OR SWAP1 SSTORE PUSH1 0x9E DUP1 SLOAD DUP3 AND PUSH20 0xAED0C38402A5D19DF6E4C03F4E2DCED6E29C1EE9 OR SWAP1 SSTORE PUSH1 0x9F DUP1 SLOAD SWAP1 SWAP2 AND PUSH20 0x2C1D072E956AFFC0D435CB7AC38EF18D24D9127C OR SWAP1 SSTORE DUP1 ISZERO PUSH2 0x10CE JUMPI PUSH1 0x0 DUP1 SLOAD PUSH2 0xFF00 NOT AND SWAP1 SSTORE JUMPDEST POP POP JUMP JUMPDEST PUSH1 0x98 SLOAD DUP2 JUMP JUMPDEST PUSH2 0x10E0 PUSH2 0x156F JUMP JUMPDEST PUSH1 0x1 PUSH1 0x1 PUSH1 0xA0 SHL SUB AND PUSH2 0x10F1 PUSH2 0xF4F JUMP JUMPDEST PUSH1 0x1 PUSH1 0x1 PUSH1 0xA0 SHL SUB AND EQ PUSH2 0x1117 JUMPI PUSH1 0x40 MLOAD PUSH3 0x461BCD PUSH1 0xE5 SHL DUP2 MSTORE PUSH1 0x4 ADD PUSH2 0x396 SWAP1 PUSH2 0x1A6C JUMP JUMPDEST PUSH1 0x1 PUSH1 0x1 PUSH1 0xA0 SHL SUB DUP2 AND PUSH2 0x113D JUMPI PUSH1 0x40 MLOAD PUSH3 0x461BCD PUSH1 0xE5 SHL DUP2 MSTORE PUSH1 0x4 ADD PUSH2 0x396 SWAP1 PUSH2 0x18EB JUMP JUMPDEST PUSH2 0x1146 DUP2 PUSH2 0x1573 JUMP JUMPDEST POP JUMP JUMPDEST PUSH1 0x2 PUSH1 0x65 SLOAD EQ ISZERO PUSH2 0x116C JUMPI PUSH1 0x40 MLOAD PUSH3 0x461BCD PUSH1 0xE5 SHL DUP2 MSTORE PUSH1 0x4 ADD PUSH2 0x396 SWAP1 PUSH2 0x1BE5 JUMP JUMPDEST PUSH1 0x2 PUSH1 0x65 SSTORE PUSH1 0x9A SLOAD DUP3 GT ISZERO PUSH2 0x1193 JUMPI PUSH1 0x40 MLOAD PUSH3 0x461BCD PUSH1 0xE5 SHL DUP2 MSTORE PUSH1 0x4 ADD PUSH2 0x396 SWAP1 PUSH2 0x1BAE JUMP JUMPDEST PUSH1 0x0 DUP3 DUP2 MSTORE PUSH1 0x99 PUSH1 0x20 MSTORE PUSH1 0x40 SWAP1 KECCAK256 DUP1 SLOAD PUSH1 0x1 PUSH1 0x1 PUSH1 0xA0 SHL SUB AND CALLER EQ ISZERO PUSH2 0x11CB JUMPI PUSH1 0x40 MLOAD PUSH3 0x461BCD PUSH1 0xE5 SHL DUP2 MSTORE PUSH1 0x4 ADD PUSH2 0x396 SWAP1 PUSH2 0x185C JUMP JUMPDEST PUSH1 0x4 DUP2 ADD SLOAD PUSH1 0x1 PUSH1 0x40 SHL SWAP1 DIV PUSH1 0xFF AND PUSH2 0x11F6 JUMPI PUSH1 0x40 MLOAD PUSH3 0x461BCD PUSH1 0xE5 SHL DUP2 MSTORE PUSH1 0x4 ADD PUSH2 0x396 SWAP1 PUSH2 0x1C1C JUMP JUMPDEST PUSH1 0x4 DUP2 ADD SLOAD PUSH4 0xFFFFFFFF AND TIMESTAMP GT ISZERO PUSH2 0x1220 JUMPI PUSH1 0x40 MLOAD PUSH3 0x461BCD PUSH1 0xE5 SHL DUP2 MSTORE PUSH1 0x4 ADD PUSH2 0x396 SWAP1 PUSH2 0x1A35 JUMP JUMPDEST PUSH1 0x1 DUP2 ADD SLOAD DUP2 SLOAD PUSH1 0x40 MLOAD PUSH4 0xE985E9C5 PUSH1 0xE0 SHL DUP2 MSTORE PUSH1 0x1 PUSH1 0x1 PUSH1 0xA0 SHL SUB SWAP3 DUP4 AND SWAP3 DUP4 SWAP3 PUSH4 0xE985E9C5 SWAP3 PUSH2 0x125A SWAP3 SWAP1 SWAP2 AND SWAP1 ADDRESS SWAP1 PUSH1 0x4 ADD PUSH2 0x1751 JUMP JUMPDEST PUSH1 0x20 PUSH1 0x40 MLOAD DUP1 DUP4 SUB DUP2 DUP7 DUP1 EXTCODESIZE ISZERO DUP1 ISZERO PUSH2 0x1272 JUMPI PUSH1 0x0 DUP1 REVERT JUMPDEST POP GAS STATICCALL ISZERO DUP1 ISZERO PUSH2 0x1286 JUMPI RETURNDATASIZE PUSH1 0x0 DUP1 RETURNDATACOPY RETURNDATASIZE PUSH1 0x0 REVERT JUMPDEST POP POP POP POP PUSH1 0x40 MLOAD RETURNDATASIZE PUSH1 0x1F NOT PUSH1 0x1F DUP3 ADD AND DUP3 ADD DUP1 PUSH1 0x40 MSTORE POP DUP2 ADD SWAP1 PUSH2 0x12AA SWAP2 SWAP1 PUSH2 0x1686 JUMP JUMPDEST PUSH2 0x12C6 JUMPI PUSH1 0x40 MLOAD PUSH3 0x461BCD PUSH1 0xE5 SHL DUP2 MSTORE PUSH1 0x4 ADD PUSH2 0x396 SWAP1 PUSH2 0x1B2E JUMP JUMPDEST PUSH1 0x9C SLOAD PUSH1 0x40 MLOAD PUSH4 0x6EB1769F PUSH1 0xE1 SHL DUP2 MSTORE DUP5 SWAP2 PUSH1 0x1 PUSH1 0x1 PUSH1 0xA0 SHL SUB AND SWAP1 PUSH4 0xDD62ED3E SWAP1 PUSH2 0x12F8 SWAP1 CALLER SWAP1 ADDRESS SWAP1 PUSH1 0x4 ADD PUSH2 0x1751 JUMP JUMPDEST PUSH1 0x20 PUSH1 0x40 MLOAD DUP1 DUP4 SUB DUP2 DUP7 DUP1 EXTCODESIZE ISZERO DUP1 ISZERO PUSH2 0x1310 JUMPI PUSH1 0x0 DUP1 REVERT JUMPDEST POP GAS STATICCALL ISZERO DUP1 ISZERO PUSH2 0x1324 JUMPI RETURNDATASIZE PUSH1 0x0 DUP1 RETURNDATACOPY RETURNDATASIZE PUSH1 0x0 REVERT JUMPDEST POP POP POP POP PUSH1 0x40 MLOAD RETURNDATASIZE PUSH1 0x1F NOT PUSH1 0x1F DUP3 ADD AND DUP3 ADD DUP1 PUSH1 0x40 MSTORE POP DUP2 ADD SWAP1 PUSH2 0x1348 SWAP2 SWAP1 PUSH2 0x16BE JUMP JUMPDEST LT ISZERO PUSH2 0x1366 JUMPI PUSH1 0x40 MLOAD PUSH3 0x461BCD PUSH1 0xE5 SHL DUP2 MSTORE PUSH1 0x4 ADD PUSH2 0x396 SWAP1 PUSH2 0x18A0 JUMP JUMPDEST PUSH1 0x0 PUSH2 0x1370 PUSH2 0x564 JUMP JUMPDEST PUSH1 0x4 DUP5 ADD SLOAD PUSH2 0x138D SWAP2 SWAP1 PUSH5 0x100000000 SWAP1 DIV PUSH4 0xFFFFFFFF AND PUSH2 0x1C6B JUMP JUMPDEST SWAP1 POP DUP4 DUP2 GT ISZERO PUSH2 0x13AF JUMPI PUSH1 0x40 MLOAD PUSH3 0x461BCD PUSH1 0xE5 SHL DUP2 MSTORE PUSH1 0x4 ADD PUSH2 0x396 SWAP1 PUSH2 0x1931 JUMP JUMPDEST DUP3 SLOAD PUSH1 0x2 DUP5 ADD SLOAD PUSH1 0x3 DUP6 ADD SLOAD PUSH1 0x40 MLOAD PUSH4 0x79212195 PUSH1 0xE1 SHL DUP2 MSTORE PUSH1 0x1 PUSH1 0x1 PUSH1 0xA0 SHL SUB DUP7 DUP2 AND SWAP5 PUSH4 0xF242432A SWAP5 PUSH2 0x13EE SWAP5 SWAP3 SWAP1 SWAP2 AND SWAP3 CALLER SWAP3 SWAP1 PUSH1 0x4 ADD PUSH2 0x178F JUMP JUMPDEST PUSH1 0x0 PUSH1 0x40 MLOAD DUP1 DUP4 SUB DUP2 PUSH1 0x0 DUP8 DUP1 EXTCODESIZE ISZERO DUP1 ISZERO PUSH2 0x1408 JUMPI PUSH1 0x0 DUP1 REVERT JUMPDEST POP GAS CALL ISZERO DUP1 ISZERO PUSH2 0x141C JUMPI RETURNDATASIZE PUSH1 0x0 DUP1 RETURNDATACOPY RETURNDATASIZE PUSH1 0x0 REVERT JUMPDEST POP POP PUSH1 0x9C SLOAD DUP6 SLOAD PUSH1 0x98 SLOAD PUSH1 0x1 PUSH1 0x1 PUSH1 0xA0 SHL SUB SWAP3 DUP4 AND SWAP5 POP PUSH4 0x23B872DD SWAP4 POP CALLER SWAP3 SWAP1 SWAP2 AND SWAP1 PUSH1 0x64 SWAP1 PUSH2 0x144D SWAP1 DUP8 PUSH2 0x1CAD JUMP JUMPDEST PUSH2 0x1457 SWAP2 SWAP1 PUSH2 0x1C99 JUMP JUMPDEST PUSH2 0x1461 SWAP1 DUP7 PUSH2 0x1CCC JUMP JUMPDEST PUSH1 0x40 MLOAD DUP5 PUSH4 0xFFFFFFFF AND PUSH1 0xE0 SHL DUP2 MSTORE PUSH1 0x4 ADD PUSH2 0x147F SWAP4 SWAP3 SWAP2 SWAP1 PUSH2 0x176B JUMP JUMPDEST PUSH1 0x20 PUSH1 0x40 MLOAD DUP1 DUP4 SUB DUP2 PUSH1 0x0 DUP8 DUP1 EXTCODESIZE ISZERO DUP1 ISZERO PUSH2 0x1499 JUMPI PUSH1 0x0 DUP1 REVERT JUMPDEST POP GAS CALL ISZERO DUP1 ISZERO PUSH2 0x14AD JUMPI RETURNDATASIZE PUSH1 0x0 DUP1 RETURNDATACOPY RETURNDATASIZE PUSH1 0x0 REVERT JUMPDEST POP POP POP POP PUSH1 0x40 MLOAD RETURNDATASIZE PUSH1 0x1F NOT PUSH1 0x1F DUP3 ADD AND DUP3 ADD DUP1 PUSH1 0x40 MSTORE POP DUP2 ADD SWAP1 PUSH2 0x14D1 SWAP2 SWAP1 PUSH2 0x1686 JUMP JUMPDEST POP PUSH1 0x4 DUP4 ADD DUP1 SLOAD PUSH1 0xFF PUSH1 0x40 SHL NOT AND SWAP1 SSTORE PUSH1 0x9C SLOAD PUSH1 0x97 SLOAD PUSH1 0x98 SLOAD PUSH1 0x1 PUSH1 0x1 PUSH1 0xA0 SHL SUB SWAP3 DUP4 AND SWAP3 PUSH4 0x23B872DD SWAP3 CALLER SWAP3 SWAP2 AND SWAP1 PUSH1 0x64 SWAP1 PUSH2 0xDC3 SWAP1 DUP8 PUSH2 0x1CAD JUMP JUMPDEST PUSH2 0x1516 PUSH2 0x156F JUMP JUMPDEST PUSH1 0x1 PUSH1 0x1 PUSH1 0xA0 SHL SUB AND PUSH2 0x1527 PUSH2 0xF4F JUMP JUMPDEST PUSH1 0x1 PUSH1 0x1 PUSH1 0xA0 SHL SUB AND EQ PUSH2 0x154D JUMPI PUSH1 0x40 MLOAD PUSH3 0x461BCD PUSH1 0xE5 SHL DUP2 MSTORE PUSH1 0x4 ADD PUSH2 0x396 SWAP1 PUSH2 0x1A6C JUMP JUMPDEST PUSH1 0x97 DUP1 SLOAD PUSH1 0x1 PUSH1 0x1 PUSH1 0xA0 SHL SUB NOT AND PUSH1 0x1 PUSH1 0x1 PUSH1 0xA0 SHL SUB SWAP3 SWAP1 SWAP3 AND SWAP2 SWAP1 SWAP2 OR SWAP1 SSTORE JUMP JUMPDEST CALLER SWAP1 JUMP JUMPDEST PUSH1 0x33 DUP1 SLOAD PUSH1 0x1 PUSH1 0x1 PUSH1 0xA0 SHL SUB DUP4 DUP2 AND PUSH1 0x1 PUSH1 0x1 PUSH1 0xA0 SHL SUB NOT DUP4 AND DUP2 OR SWAP1 SWAP4 SSTORE PUSH1 0x40 MLOAD SWAP2 AND SWAP2 SWAP1 DUP3 SWAP1 PUSH32 0x8BE0079C531659141344CD1FD0A4F28419497F9722A3DAAFE3B4186F6B6457E0 SWAP1 PUSH1 0x0 SWAP1 LOG3 POP POP JUMP JUMPDEST DUP1 CALLDATALOAD PUSH1 0x1 PUSH1 0x1 PUSH1 0xA0 SHL SUB DUP2 AND DUP2 EQ PUSH2 0x15DC JUMPI PUSH1 0x0 DUP1 REVERT JUMPDEST SWAP2 SWAP1 POP JUMP JUMPDEST DUP1 CALLDATALOAD PUSH4 0xFFFFFFFF DUP2 AND DUP2 EQ PUSH2 0x15DC JUMPI PUSH1 0x0 DUP1 REVERT JUMPDEST DUP1 MLOAD PUSH10 0xFFFFFFFFFFFFFFFFFFFF DUP2 AND DUP2 EQ PUSH2 0x15DC JUMPI PUSH1 0x0 DUP1 REVERT JUMPDEST PUSH1 0x0 PUSH1 0x20 DUP3 DUP5 SUB SLT ISZERO PUSH2 0x1620 JUMPI DUP1 DUP2 REVERT JUMPDEST PUSH2 0x1629 DUP3 PUSH2 0x15C5 JUMP JUMPDEST SWAP4 SWAP3 POP POP POP JUMP JUMPDEST PUSH1 0x0 DUP1 PUSH1 0x0 DUP1 PUSH1 0x0 PUSH1 0xA0 DUP7 DUP9 SUB SLT ISZERO PUSH2 0x1647 JUMPI DUP1 DUP2 REVERT JUMPDEST PUSH2 0x1650 DUP7 PUSH2 0x15C5 JUMP JUMPDEST SWAP5 POP PUSH1 0x20 DUP7 ADD CALLDATALOAD SWAP4 POP PUSH1 0x40 DUP7 ADD CALLDATALOAD SWAP3 POP PUSH2 0x166C PUSH1 0x60 DUP8 ADD PUSH2 0x15E1 JUMP JUMPDEST SWAP2 POP PUSH2 0x167A PUSH1 0x80 DUP8 ADD PUSH2 0x15E1 JUMP JUMPDEST SWAP1 POP SWAP3 SWAP6 POP SWAP3 SWAP6 SWAP1 SWAP4 POP JUMP JUMPDEST PUSH1 0x0 PUSH1 0x20 DUP3 DUP5 SUB SLT ISZERO PUSH2 0x1697 JUMPI DUP1 DUP2 REVERT JUMPDEST DUP2 MLOAD DUP1 ISZERO ISZERO DUP2 EQ PUSH2 0x1629 JUMPI DUP2 DUP3 REVERT JUMPDEST PUSH1 0x0 PUSH1 0x20 DUP3 DUP5 SUB SLT ISZERO PUSH2 0x16B7 JUMPI DUP1 DUP2 REVERT JUMPDEST POP CALLDATALOAD SWAP2 SWAP1 POP JUMP JUMPDEST PUSH1 0x0 PUSH1 0x20 DUP3 DUP5 SUB SLT ISZERO PUSH2 0x16CF JUMPI DUP1 DUP2 REVERT JUMPDEST POP MLOAD SWAP2 SWAP1 POP JUMP JUMPDEST PUSH1 0x0 DUP1 PUSH1 0x40 DUP4 DUP6 SUB SLT ISZERO PUSH2 0x16E8 JUMPI DUP2 DUP3 REVERT JUMPDEST POP POP DUP1 CALLDATALOAD SWAP3 PUSH1 0x20 SWAP1 SWAP2 ADD CALLDATALOAD SWAP2 POP JUMP JUMPDEST PUSH1 0x0 DUP1 PUSH1 0x0 DUP1 PUSH1 0x0 PUSH1 0xA0 DUP7 DUP9 SUB SLT ISZERO PUSH2 0x170E JUMPI DUP1 DUP2 REVERT JUMPDEST PUSH2 0x1717 DUP7 PUSH2 0x15F5 JUMP JUMPDEST SWAP5 POP PUSH1 0x20 DUP7 ADD MLOAD SWAP4 POP PUSH1 0x40 DUP7 ADD MLOAD SWAP3 POP PUSH1 0x60 DUP7 ADD MLOAD SWAP2 POP PUSH2 0x167A PUSH1 0x80 DUP8 ADD PUSH2 0x15F5 JUMP JUMPDEST SWAP1 JUMP JUMPDEST PUSH1 0x1 PUSH1 0x1 PUSH1 0xA0 SHL SUB SWAP2 SWAP1 SWAP2 AND DUP2 MSTORE PUSH1 0x20 ADD SWAP1 JUMP JUMPDEST PUSH1 0x1 PUSH1 0x1 PUSH1 0xA0 SHL SUB SWAP3 DUP4 AND DUP2 MSTORE SWAP2 AND PUSH1 0x20 DUP3 ADD MSTORE PUSH1 0x40 ADD SWAP1 JUMP JUMPDEST PUSH1 0x1 PUSH1 0x1 PUSH1 0xA0 SHL SUB SWAP4 DUP5 AND DUP2 MSTORE SWAP2 SWAP1 SWAP3 AND PUSH1 0x20 DUP3 ADD MSTORE PUSH1 0x40 DUP2 ADD SWAP2 SWAP1 SWAP2 MSTORE PUSH1 0x60 ADD SWAP1 JUMP JUMPDEST PUSH1 0x1 PUSH1 0x1 PUSH1 0xA0 SHL SUB SWAP5 DUP6 AND DUP2 MSTORE SWAP3 SWAP1 SWAP4 AND PUSH1 0x20 DUP4 ADD MSTORE PUSH1 0x40 DUP3 ADD MSTORE PUSH1 0x60 DUP2 ADD SWAP2 SWAP1 SWAP2 MSTORE PUSH1 0xA0 PUSH1 0x80 DUP3 ADD DUP2 SWAP1 MSTORE PUSH1 0x0 SWAP1 DUP3 ADD MSTORE PUSH1 0xC0 ADD SWAP1 JUMP JUMPDEST PUSH1 0x1 PUSH1 0x1 PUSH1 0xA0 SHL SUB SWAP8 DUP9 AND DUP2 MSTORE SWAP6 SWAP1 SWAP7 AND PUSH1 0x20 DUP7 ADD MSTORE PUSH1 0x40 DUP6 ADD SWAP4 SWAP1 SWAP4 MSTORE PUSH1 0x60 DUP5 ADD SWAP2 SWAP1 SWAP2 MSTORE PUSH4 0xFFFFFFFF SWAP1 DUP2 AND PUSH1 0x80 DUP5 ADD MSTORE AND PUSH1 0xA0 DUP3 ADD MSTORE SWAP1 ISZERO ISZERO PUSH1 0xC0 DUP3 ADD MSTORE PUSH1 0xE0 ADD SWAP1 JUMP JUMPDEST SWAP1 DUP2 MSTORE PUSH1 0x20 ADD SWAP1 JUMP JUMPDEST PUSH1 0x20 DUP1 DUP3 MSTORE PUSH1 0x25 SWAP1 DUP3 ADD MSTORE PUSH32 0x596F7520617265206E6F74207468652063726561746F72206F66207468697320 PUSH1 0x40 DUP3 ADD MSTORE PUSH5 0x37B33332B9 PUSH1 0xD9 SHL PUSH1 0x60 DUP3 ADD MSTORE PUSH1 0x80 ADD SWAP1 JUMP JUMPDEST PUSH1 0x20 DUP1 DUP3 MSTORE PUSH1 0x24 SWAP1 DUP3 ADD MSTORE PUSH32 0x5468652073656C6C65722063616E277420626520746865206275796572206173 PUSH1 0x40 DUP3 ADD MSTORE PUSH4 0x1DD95B1B PUSH1 0xE2 SHL PUSH1 0x60 DUP3 ADD MSTORE PUSH1 0x80 ADD SWAP1 JUMP JUMPDEST PUSH1 0x20 DUP1 DUP3 MSTORE PUSH1 0x2B SWAP1 DUP3 ADD MSTORE PUSH32 0x416C6C6F77616E6365206973206E656564656420746F207370656E6420746865 PUSH1 0x40 DUP3 ADD MSTORE PUSH11 0x103634B735903A37B5B2B7 PUSH1 0xA9 SHL PUSH1 0x60 DUP3 ADD MSTORE PUSH1 0x80 ADD SWAP1 JUMP JUMPDEST PUSH1 0x20 DUP1 DUP3 MSTORE PUSH1 0x26 SWAP1 DUP3 ADD MSTORE PUSH32 0x4F776E61626C653A206E6577206F776E657220697320746865207A65726F2061 PUSH1 0x40 DUP3 ADD MSTORE PUSH6 0x646472657373 PUSH1 0xD0 SHL PUSH1 0x60 DUP3 ADD MSTORE PUSH1 0x80 ADD SWAP1 JUMP JUMPDEST PUSH1 0x20 DUP1 DUP3 MSTORE DUP2 DUP2 ADD MSTORE PUSH32 0x4E6F7420656E6F756768204C696E6B20746F206275792074686520746F6B656E PUSH1 0x40 DUP3 ADD MSTORE PUSH1 0x60 ADD SWAP1 JUMP JUMPDEST PUSH1 0x20 DUP1 DUP3 MSTORE PUSH1 0x2A SWAP1 DUP3 ADD MSTORE PUSH32 0x416C6C6F77616E6365206973206E656564656420746F207370656E6420746865 PUSH1 0x40 DUP3 ADD MSTORE PUSH10 0x103230B4903A37B5B2B7 PUSH1 0xB1 SHL PUSH1 0x60 DUP3 ADD MSTORE PUSH1 0x80 ADD SWAP1 JUMP JUMPDEST PUSH1 0x20 DUP1 DUP3 MSTORE PUSH1 0x2E SWAP1 DUP3 ADD MSTORE PUSH32 0x496E697469616C697A61626C653A20636F6E747261637420697320616C726561 PUSH1 0x40 DUP3 ADD MSTORE PUSH14 0x191E481A5B9A5D1A585B1A5E9959 PUSH1 0x92 SHL PUSH1 0x60 DUP3 ADD MSTORE PUSH1 0x80 ADD SWAP1 JUMP JUMPDEST PUSH1 0x20 DUP1 DUP3 MSTORE PUSH1 0x1F SWAP1 DUP3 ADD MSTORE PUSH32 0x4E6F7420656E6F7567682044616920746F206275792074686520746F6B656E00 PUSH1 0x40 DUP3 ADD MSTORE PUSH1 0x60 ADD SWAP1 JUMP JUMPDEST PUSH1 0x20 DUP1 DUP3 MSTORE PUSH1 0x1D SWAP1 DUP3 ADD MSTORE PUSH32 0x54686520646561646C696E6520686173206265656E2072656163686564000000 PUSH1 0x40 DUP3 ADD MSTORE PUSH1 0x60 ADD SWAP1 JUMP JUMPDEST PUSH1 0x20 DUP1 DUP3 MSTORE DUP2 DUP2 ADD MSTORE PUSH32 0x4F776E61626C653A2063616C6C6572206973206E6F7420746865206F776E6572 PUSH1 0x40 DUP3 ADD MSTORE PUSH1 0x60 ADD SWAP1 JUMP JUMPDEST PUSH1 0x20 DUP1 DUP3 MSTORE PUSH1 0x36 SWAP1 DUP3 ADD MSTORE PUSH32 0x417070726F76616C20697320726571756972656420746F207370656E64207468 PUSH1 0x40 DUP3 ADD MSTORE PUSH22 0x19481D1BDAD95B9CC81D1BC81899481BD999995C9959 PUSH1 0x52 SHL PUSH1 0x60 DUP3 ADD MSTORE PUSH1 0x80 ADD SWAP1 JUMP JUMPDEST PUSH1 0x20 DUP1 DUP3 MSTORE PUSH1 0x1B SWAP1 DUP3 ADD MSTORE PUSH32 0x596F752068617665206E6F742073656E7420616E792065746865720000000000 PUSH1 0x40 DUP3 ADD MSTORE PUSH1 0x60 ADD SWAP1 JUMP JUMPDEST PUSH1 0x20 DUP1 DUP3 MSTORE PUSH1 0x31 SWAP1 DUP3 ADD MSTORE PUSH32 0x5468652073656C6C6572206861732072656D6F7665206170726F76616C20746F PUSH1 0x40 DUP3 ADD MSTORE PUSH17 0x207370656E642074686520746F6B656E73 PUSH1 0x78 SHL PUSH1 0x60 DUP3 ADD MSTORE PUSH1 0x80 ADD SWAP1 JUMP JUMPDEST PUSH1 0x20 DUP1 DUP3 MSTORE PUSH1 0x15 SWAP1 DUP3 ADD MSTORE PUSH21 0x139BDD08195B9BDD59DA08195D1A195C881CD95B9D PUSH1 0x5A SHL PUSH1 0x40 DUP3 ADD MSTORE PUSH1 0x60 ADD SWAP1 JUMP JUMPDEST PUSH1 0x20 DUP1 DUP3 MSTORE PUSH1 0x17 SWAP1 DUP3 ADD MSTORE PUSH32 0x4F6666657220696420646F6573206E6F74206578697374000000000000000000 PUSH1 0x40 DUP3 ADD MSTORE PUSH1 0x60 ADD SWAP1 JUMP JUMPDEST PUSH1 0x20 DUP1 DUP3 MSTORE PUSH1 0x1F SWAP1 DUP3 ADD MSTORE PUSH32 0x5265656E7472616E637947756172643A207265656E7472616E742063616C6C00 PUSH1 0x40 DUP3 ADD MSTORE PUSH1 0x60 ADD SWAP1 JUMP JUMPDEST PUSH1 0x20 DUP1 DUP3 MSTORE PUSH1 0x1D SWAP1 DUP3 ADD MSTORE PUSH32 0x54686973206F6666657220686173206265656E2063616E63656C6C6564000000 PUSH1 0x40 DUP3 ADD MSTORE PUSH1 0x60 ADD SWAP1 JUMP JUMPDEST PUSH1 0x0 DUP3 NOT DUP3 GT ISZERO PUSH2 0x1C66 JUMPI PUSH2 0x1C66 PUSH2 0x1CFE JUMP JUMPDEST POP ADD SWAP1 JUMP JUMPDEST PUSH1 0x0 DUP3 PUSH2 0x1C7A JUMPI PUSH2 0x1C7A PUSH2 0x1D14 JUMP JUMPDEST PUSH1 0x1 PUSH1 0xFF SHL DUP3 EQ PUSH1 0x0 NOT DUP5 EQ AND ISZERO PUSH2 0x1C94 JUMPI PUSH2 0x1C94 PUSH2 0x1CFE JUMP JUMPDEST POP SDIV SWAP1 JUMP JUMPDEST PUSH1 0x0 DUP3 PUSH2 0x1CA8 JUMPI PUSH2 0x1CA8 PUSH2 0x1D14 JUMP JUMPDEST POP DIV SWAP1 JUMP JUMPDEST PUSH1 0x0 DUP2 PUSH1 0x0 NOT DIV DUP4 GT DUP3 ISZERO ISZERO AND ISZERO PUSH2 0x1CC7 JUMPI PUSH2 0x1CC7 PUSH2 0x1CFE JUMP JUMPDEST POP MUL SWAP1 JUMP JUMPDEST PUSH1 0x0 DUP3 DUP3 LT ISZERO PUSH2 0x1CDE JUMPI PUSH2 0x1CDE PUSH2 0x1CFE JUMP JUMPDEST POP SUB SWAP1 JUMP JUMPDEST PUSH1 0x0 PUSH1 0x0 NOT DUP3 EQ ISZERO PUSH2 0x1CF7 JUMPI PUSH2 0x1CF7 PUSH2 0x1CFE JUMP JUMPDEST POP PUSH1 0x1 ADD SWAP1 JUMP JUMPDEST PUSH4 0x4E487B71 PUSH1 0xE0 SHL PUSH1 0x0 MSTORE PUSH1 0x11 PUSH1 0x4 MSTORE PUSH1 0x24 PUSH1 0x0 REVERT JUMPDEST PUSH4 0x4E487B71 PUSH1 0xE0 SHL PUSH1 0x0 MSTORE PUSH1 0x12 PUSH1 0x4 MSTORE PUSH1 0x24 PUSH1 0x0 REVERT INVALID LOG2 PUSH5 0x6970667358 0x22 SLT KECCAK256 0xAC 0x5E 0x1E SMOD SWAP2 0xA9 EXTCODESIZE 0xE1 0xCC 0xAF 0x49 0xDD 0x4F 0xD0 EQ GASPRICE DUP14 DUP12 LOG0 0xE2 SDIV LOG0 0xA8 MSIZE 0xB3 STATICCALL 0xB9 COINBASE 0x4A PUSH2 0xF744 PUSH5 0x736F6C6343 STOP ADDMOD STOP STOP CALLER "
        },
        "methodIdentifiers": {
          "buyWithDai(uint256,uint256)": "66546222",
          "buyWithEther(uint256)": "550b9c11",
          "buyWithLink(uint256,uint256)": "f46f358e",
          "cancellOffer(uint256)": "3cc4af1d",
          "fee()": "ddca3f43",
          "getDaiPrice()": "2649aa16",
          "getEthPrice()": "67c9b017",
          "getLinkPrice()": "2dddd49c",
          "initialize(address)": "c4d66de8",
          "offerCount()": "1115c24d",
          "offers(uint256)": "8a72ea6a",
          "owner()": "8da5cb5b",
          "placeOffer(address,uint256,uint256,uint32,uint32)": "0c54449d",
          "recipient()": "66d003ac",
          "renounceOwnership()": "715018a6",
          "transferOwnership(address)": "f2fde38b",
          "updateFee(uint256)": "9012c4a8",
          "updateRecipient(address)": "feec756c"
        }
      }
    }
  }
}