{
  "_format": "hh-sol-artifact-1",
  "contractName": "MarketplaceV1",
  "sourceName": "contracts/MarketplaceV1.sol",
  "abi": [
    {
      "anonymous": false,
      "inputs": [
        {
          "indexed": true,
          "internalType": "address",
          "name": "previousOwner",
          "type": "address"
        },
        {
          "indexed": true,
          "internalType": "address",
          "name": "newOwner",
          "type": "address"
        }
      ],
      "name": "OwnershipTransferred",
      "type": "event"
    },
    {
      "inputs": [
        {
          "internalType": "uint256",
          "name": "_id",
          "type": "uint256"
        },
        {
          "internalType": "uint256",
          "name": "_amount",
          "type": "uint256"
        }
      ],
      "name": "buyWithDai",
      "outputs": [],
      "stateMutability": "payable",
      "type": "function"
    },
    {
      "inputs": [
        {
          "internalType": "uint256",
          "name": "_id",
          "type": "uint256"
        }
      ],
      "name": "buyWithEther",
      "outputs": [],
      "stateMutability": "payable",
      "type": "function"
    },
    {
      "inputs": [
        {
          "internalType": "uint256",
          "name": "_id",
          "type": "uint256"
        },
        {
          "internalType": "uint256",
          "name": "_amount",
          "type": "uint256"
        }
      ],
      "name": "buyWithLink",
      "outputs": [],
      "stateMutability": "payable",
      "type": "function"
    },
    {
      "inputs": [
        {
          "internalType": "uint256",
          "name": "_id",
          "type": "uint256"
        }
      ],
      "name": "cancellOffer",
      "outputs": [],
      "stateMutability": "nonpayable",
      "type": "function"
    },
    {
      "inputs": [],
      "name": "fee",
      "outputs": [
        {
          "internalType": "uint256",
          "name": "",
          "type": "uint256"
        }
      ],
      "stateMutability": "view",
      "type": "function"
    },
    {
      "inputs": [],
      "name": "getDaiPrice",
      "outputs": [
        {
          "internalType": "int256",
          "name": "",
          "type": "int256"
        }
      ],
      "stateMutability": "view",
      "type": "function"
    },
    {
      "inputs": [],
      "name": "getEthPrice",
      "outputs": [
        {
          "internalType": "int256",
          "name": "",
          "type": "int256"
        }
      ],
      "stateMutability": "view",
      "type": "function"
    },
    {
      "inputs": [],
      "name": "getLinkPrice",
      "outputs": [
        {
          "internalType": "int256",
          "name": "",
          "type": "int256"
        }
      ],
      "stateMutability": "view",
      "type": "function"
    },
    {
      "inputs": [
        {
          "internalType": "address",
          "name": "_recipient",
          "type": "address"
        }
      ],
      "name": "initialize",
      "outputs": [],
      "stateMutability": "nonpayable",
      "type": "function"
    },
    {
      "inputs": [],
      "name": "offerCount",
      "outputs": [
        {
          "internalType": "uint256",
          "name": "",
          "type": "uint256"
        }
      ],
      "stateMutability": "view",
      "type": "function"
    },
    {
      "inputs": [
        {
          "internalType": "uint256",
          "name": "",
          "type": "uint256"
        }
      ],
      "name": "offers",
      "outputs": [
        {
          "internalType": "address",
          "name": "owner",
          "type": "address"
        },
        {
          "internalType": "address",
          "name": "tokenAdress",
          "type": "address"
        },
        {
          "internalType": "uint256",
          "name": "tokenId",
          "type": "uint256"
        },
        {
          "internalType": "uint256",
          "name": "amount",
          "type": "uint256"
        },
        {
          "internalType": "uint32",
          "name": "deadline",
          "type": "uint32"
        },
        {
          "internalType": "uint32",
          "name": "usdPrice",
          "type": "uint32"
        },
        {
          "internalType": "bool",
          "name": "onSale",
          "type": "bool"
        }
      ],
      "stateMutability": "view",
      "type": "function"
    },
    {
      "inputs": [],
      "name": "owner",
      "outputs": [
        {
          "internalType": "address",
          "name": "",
          "type": "address"
        }
      ],
      "stateMutability": "view",
      "type": "function"
    },
    {
      "inputs": [
        {
          "internalType": "address",
          "name": "_tokenAdress",
          "type": "address"
        },
        {
          "internalType": "uint256",
          "name": "_tokenId",
          "type": "uint256"
        },
        {
          "internalType": "uint256",
          "name": "_amount",
          "type": "uint256"
        },
        {
          "internalType": "uint32",
          "name": "_deadline",
          "type": "uint32"
        },
        {
          "internalType": "uint32",
          "name": "_usdPrice",
          "type": "uint32"
        }
      ],
      "name": "placeOffer",
      "outputs": [],
      "stateMutability": "payable",
      "type": "function"
    },
    {
      "inputs": [],
      "name": "recipient",
      "outputs": [
        {
          "internalType": "address",
          "name": "",
          "type": "address"
        }
      ],
      "stateMutability": "view",
      "type": "function"
    },
    {
      "inputs": [],
      "name": "renounceOwnership",
      "outputs": [],
      "stateMutability": "nonpayable",
      "type": "function"
    },
    {
      "inputs": [
        {
          "internalType": "address",
          "name": "newOwner",
          "type": "address"
        }
      ],
      "name": "transferOwnership",
      "outputs": [],
      "stateMutability": "nonpayable",
      "type": "function"
    },
    {
      "inputs": [
        {
          "internalType": "uint256",
          "name": "_newFee",
          "type": "uint256"
        }
      ],
      "name": "updateFee",
      "outputs": [],
      "stateMutability": "nonpayable",
      "type": "function"
    },
    {
      "inputs": [
        {
          "internalType": "address",
          "name": "_newRecipient",
          "type": "address"
        }
      ],
      "name": "updateRecipient",
      "outputs": [],
      "stateMutability": "nonpayable",
      "type": "function"
    }
  ],
  "bytecode": "0x608060405234801561001057600080fd5b50611e19806100206000396000f3fe6080604052600436106101095760003560e01c8063715018a611610095578063c4d66de811610064578063c4d66de814610272578063ddca3f4314610292578063f2fde38b146102a7578063f46f358e146102c7578063feec756c146102da57610109565b8063715018a6146101f55780638a72ea6a1461020a5780638da5cb5b1461023d5780639012c4a81461025257610109565b80633cc4af1d116100dc5780633cc4af1d14610178578063550b9c111461019857806366546222146101ab57806366d003ac146101be57806367c9b017146101e057610109565b80630c54449d1461010e5780631115c24d146101235780632649aa161461014e5780632dddd49c14610163575b600080fd5b61012161011c366004611666565b6102fa565b005b34801561012f57600080fd5b506101386104ca565b6040516101459190611844565b60405180910390f35b34801561015a57600080fd5b506101386104d0565b34801561016f57600080fd5b50610138610564565b34801561018457600080fd5b506101216101933660046116dc565b6105b5565b6101216101a63660046116dc565b61062b565b6101216101b936600461170c565b610a10565b3480156101ca57600080fd5b506101d3610e6e565b6040516101459190611773565b3480156101ec57600080fd5b50610138610e7d565b34801561020157600080fd5b50610121610ece565b34801561021657600080fd5b5061022a6102253660046116dc565b610f19565b60405161014597969594939291906117fd565b34801561024957600080fd5b506101d3610f73565b34801561025e57600080fd5b5061012161026d3660046116dc565b610f82565b34801561027e57600080fd5b5061012161028d366004611645565b610fc6565b34801561029e57600080fd5b506101386110f6565b3480156102b357600080fd5b506101216102c2366004611645565b6110fc565b6101216102d536600461170c565b61116d565b3480156102e657600080fd5b506101216102f5366004611645565b611544565b60405163e985e9c560e01b815285906001600160a01b0382169063e985e9c59061032a9033903090600401611787565b60206040518083038186803b15801561034257600080fd5b505afa158015610356573d6000803e3d6000fd5b505050506040513d601f19601f8201168201806040525081019061037a91906116bc565b61039f5760405162461bcd60e51b815260040161039690611ad7565b60405180910390fd5b609a80549060006103af83611d9c565b90915550506040805160e0810182523381526001600160a01b038816602082015290810186905260608101859052608081016103f163ffffffff861642611c89565b63ffffffff908116825293841660208083019190915260016040928301819052609a54600090815260998352839020845181546001600160a01b039182166001600160a01b03199182161783559386015192820180549390911692909316919091179091559082015160028201556060820151600382015560808201516004909101805460a084015160c0909401511515600160401b0260ff60401b199487166401000000000267ffffffff00000000199490971663ffffffff1990921691909117929092169490941791909116179091555050505050565b609a5481565b600080609e60009054906101000a90046001600160a01b03166001600160a01b031663feaf968c6040518163ffffffff1660e01b815260040160a06040518083038186803b15801561052157600080fd5b505afa158015610535573d6000803e3d6000fd5b505050506040513d601f19601f82011682018060405250810190610559919061172d565b509194505050505090565b600080609f60009054906101000a90046001600160a01b03166001600160a01b031663feaf968c6040518163ffffffff1660e01b815260040160a06040518083038186803b15801561052157600080fd5b609a548111156105d75760405162461bcd60e51b815260040161039690611be4565b6000818152609960205260409020546001600160a01b0316331461060d5760405162461bcd60e51b81526004016103969061184d565b6000908152609960205260409020600401805460ff60401b19169055565b6002606554141561064e5760405162461bcd60e51b815260040161039690611c1b565b6002606555609a548111156106755760405162461bcd60e51b815260040161039690611be4565b600081815260996020526040902080546001600160a01b03163314156106ad5760405162461bcd60e51b815260040161039690611892565b6004810154600160401b900460ff166106d85760405162461bcd60e51b815260040161039690611c52565b600481015463ffffffff164211156107025760405162461bcd60e51b815260040161039690611a6b565b6001810154815460405163e985e9c560e01b81526001600160a01b0392831692839263e985e9c59261073c92909116903090600401611787565b60206040518083038186803b15801561075457600080fd5b505afa158015610768573d6000803e3d6000fd5b505050506040513d601f19601f8201168201806040525081019061078c91906116bc565b6107a85760405162461bcd60e51b815260040161039690611b64565b600034116107c85760405162461bcd60e51b815260040161039690611b2d565b60006107d2610e7d565b60048401546107f790640100000000900463ffffffff16670de0b6b3a7640000611ce3565b6108019190611ca1565b9050348111156108235760405162461bcd60e51b815260040161039690611bb5565b825460028401546003850154604051637921219560e11b81526001600160a01b038681169463f242432a946108629492909116923392906004016117c5565b600060405180830381600087803b15801561087c57600080fd5b505af1158015610890573d6000803e3d6000fd5b505084546098546001600160a01b039091169250606491506108b29084611d66565b6108bc9190611ccf565b6108c69083611d85565b6040516108d290611770565b60006040518083038185875af1925050503d806000811461090f576040519150601f19603f3d011682016040523d82523d6000602084013e610914565b606091505b50505060048301805460ff60401b191690556097546098546001600160a01b03909116906064906109459084611d66565b61094f9190611ccf565b60405161095b90611770565b60006040518083038185875af1925050503d8060008114610998576040519150601f19603f3d011682016040523d82523d6000602084013e61099d565b606091505b50505080341115610a0557336109b38234611d85565b6040516109bf90611770565b60006040518083038185875af1925050503d80600081146109fc576040519150601f19603f3d011682016040523d82523d6000602084013e610a01565b606091505b5050505b505060016065555050565b60026065541415610a335760405162461bcd60e51b815260040161039690611c1b565b6002606555609a54821115610a5a5760405162461bcd60e51b815260040161039690611be4565b600082815260996020526040902080546001600160a01b0316331415610a925760405162461bcd60e51b815260040161039690611892565b6004810154600160401b900460ff16610abd5760405162461bcd60e51b815260040161039690611c52565b600481015463ffffffff16421115610ae75760405162461bcd60e51b815260040161039690611a6b565b6001810154815460405163e985e9c560e01b81526001600160a01b0392831692839263e985e9c592610b2192909116903090600401611787565b60206040518083038186803b158015610b3957600080fd5b505afa158015610b4d573d6000803e3d6000fd5b505050506040513d601f19601f82011682018060405250810190610b7191906116bc565b610b8d5760405162461bcd60e51b815260040161039690611b64565b609b54604051636eb1769f60e11b815284916001600160a01b03169063dd62ed3e90610bbf9033903090600401611787565b60206040518083038186803b158015610bd757600080fd5b505afa158015610beb573d6000803e3d6000fd5b505050506040513d601f19601f82011682018060405250810190610c0f91906116f4565b1015610c2d5760405162461bcd60e51b81526004016103969061199c565b6000610c376104d0565b6004840154610c5c90640100000000900463ffffffff16670de0b6b3a7640000611ce3565b610c669190611ca1565b905083811115610c885760405162461bcd60e51b815260040161039690611a34565b825460028401546003850154604051637921219560e11b81526001600160a01b038681169463f242432a94610cc79492909116923392906004016117c5565b600060405180830381600087803b158015610ce157600080fd5b505af1158015610cf5573d6000803e3d6000fd5b5050609b5485546098546001600160a01b0392831694506323b872dd9350339290911690606490610d269087611d66565b610d309190611ccf565b610d3a9086611d85565b6040518463ffffffff1660e01b8152600401610d58939291906117a1565b602060405180830381600087803b158015610d7257600080fd5b505af1158015610d86573d6000803e3d6000fd5b505050506040513d601f19601f82011682018060405250810190610daa91906116bc565b5060048301805460ff60401b19169055609b546097546098546001600160a01b03928316926323b872dd923392911690606490610de79087611d66565b610df19190611ccf565b6040518463ffffffff1660e01b8152600401610e0f939291906117a1565b602060405180830381600087803b158015610e2957600080fd5b505af1158015610e3d573d6000803e3d6000fd5b505050506040513d601f19601f82011682018060405250810190610e6191906116bc565b5050600160655550505050565b6097546001600160a01b031681565b600080609d60009054906101000a90046001600160a01b03166001600160a01b031663feaf968c6040518163ffffffff1660e01b815260040160a06040518083038186803b15801561052157600080fd5b610ed66115a5565b6001600160a01b0316610ee7610f73565b6001600160a01b031614610f0d5760405162461bcd60e51b815260040161039690611aa2565b610f1760006115a9565b565b609960205260009081526040902080546001820154600283015460038401546004909401546001600160a01b03938416949390921692909163ffffffff80821691640100000000810490911690600160401b900460ff1687565b6033546001600160a01b031690565b610f8a6115a5565b6001600160a01b0316610f9b610f73565b6001600160a01b031614610fc15760405162461bcd60e51b815260040161039690611aa2565b609855565b600054610100900460ff1680610fdf575060005460ff16155b610ffb5760405162461bcd60e51b8152600401610396906119e6565b600054610100900460ff16158015611026576000805460ff1961ff0019909116610100171660011790555b609780546001600160a01b0384166001600160a01b0319918216179091556001609855609b80548216736b175474e89094c44da98b954eedeac495271d0f179055609c8054821673514910771af9ca656af840dff83e8264ecf986ca179055609d80548216735f4ec3df9cbd43714fe2740f5e3616155c5b8419179055609e8054821673aed0c38402a5d19df6e4c03f4e2dced6e29c1ee9179055609f8054909116732c1d072e956affc0d435cb7ac38ef18d24d9127c17905580156110f2576000805461ff00191690555b5050565b60985481565b6111046115a5565b6001600160a01b0316611115610f73565b6001600160a01b03161461113b5760405162461bcd60e51b815260040161039690611aa2565b6001600160a01b0381166111615760405162461bcd60e51b815260040161039690611921565b61116a816115a9565b50565b600260655414156111905760405162461bcd60e51b815260040161039690611c1b565b6002606555609a548211156111b75760405162461bcd60e51b815260040161039690611be4565b600082815260996020526040902080546001600160a01b03163314156111ef5760405162461bcd60e51b815260040161039690611892565b6004810154600160401b900460ff1661121a5760405162461bcd60e51b815260040161039690611c52565b600481015463ffffffff164211156112445760405162461bcd60e51b815260040161039690611a6b565b6001810154815460405163e985e9c560e01b81526001600160a01b0392831692839263e985e9c59261127e92909116903090600401611787565b60206040518083038186803b15801561129657600080fd5b505afa1580156112aa573d6000803e3d6000fd5b505050506040513d601f19601f820116820180604052508101906112ce91906116bc565b6112ea5760405162461bcd60e51b815260040161039690611b64565b609c54604051636eb1769f60e11b815284916001600160a01b03169063dd62ed3e9061131c9033903090600401611787565b60206040518083038186803b15801561133457600080fd5b505afa158015611348573d6000803e3d6000fd5b505050506040513d601f19601f8201168201806040525081019061136c91906116f4565b101561138a5760405162461bcd60e51b8152600401610396906118d6565b6000611394610564565b60048401546113b990640100000000900463ffffffff16670de0b6b3a7640000611ce3565b6113c39190611ca1565b9050838111156113e55760405162461bcd60e51b815260040161039690611967565b825460028401546003850154604051637921219560e11b81526001600160a01b038681169463f242432a946114249492909116923392906004016117c5565b600060405180830381600087803b15801561143e57600080fd5b505af1158015611452573d6000803e3d6000fd5b5050609c5485546098546001600160a01b0392831694506323b872dd93503392909116906064906114839087611d66565b61148d9190611ccf565b6114979086611d85565b6040518463ffffffff1660e01b81526004016114b5939291906117a1565b602060405180830381600087803b1580156114cf57600080fd5b505af11580156114e3573d6000803e3d6000fd5b505050506040513d601f19601f8201168201806040525081019061150791906116bc565b5060048301805460ff60401b19169055609c546097546098546001600160a01b03928316926323b872dd923392911690606490610de79087611d66565b61154c6115a5565b6001600160a01b031661155d610f73565b6001600160a01b0316146115835760405162461bcd60e51b815260040161039690611aa2565b609780546001600160a01b0319166001600160a01b0392909216919091179055565b3390565b603380546001600160a01b038381166001600160a01b0319831681179093556040519116919082907f8be0079c531659141344cd1fd0a4f28419497f9722a3daafe3b4186f6b6457e090600090a35050565b80356001600160a01b038116811461161257600080fd5b919050565b803563ffffffff8116811461161257600080fd5b805169ffffffffffffffffffff8116811461161257600080fd5b600060208284031215611656578081fd5b61165f826115fb565b9392505050565b600080600080600060a0868803121561167d578081fd5b611686866115fb565b945060208601359350604086013592506116a260608701611617565b91506116b060808701611617565b90509295509295909350565b6000602082840312156116cd578081fd5b8151801515811461165f578182fd5b6000602082840312156116ed578081fd5b5035919050565b600060208284031215611705578081fd5b5051919050565b6000806040838503121561171e578182fd5b50508035926020909101359150565b600080600080600060a08688031215611744578081fd5b61174d8661162b565b94506020860151935060408601519250606086015191506116b06080870161162b565b90565b6001600160a01b0391909116815260200190565b6001600160a01b0392831681529116602082015260400190565b6001600160a01b039384168152919092166020820152604081019190915260600190565b6001600160a01b0394851681529290931660208301526040820152606081019190915260a06080820181905260009082015260c00190565b6001600160a01b0397881681529590961660208601526040850193909352606084019190915263ffffffff90811660808401521660a082015290151560c082015260e00190565b90815260200190565b60208082526025908201527f596f7520617265206e6f74207468652063726561746f72206f6620746869732060408201526437b33332b960d91b606082015260800190565b60208082526024908201527f5468652073656c6c65722063616e2774206265207468652062757965722061736040820152631dd95b1b60e21b606082015260800190565b6020808252602b908201527f416c6c6f77616e6365206973206e656564656420746f207370656e642074686560408201526a103634b735903a37b5b2b760a91b606082015260800190565b60208082526026908201527f4f776e61626c653a206e6577206f776e657220697320746865207a65726f206160408201526564647265737360d01b606082015260800190565b6020808252818101527f4e6f7420656e6f756768204c696e6b20746f206275792074686520746f6b656e604082015260600190565b6020808252602a908201527f416c6c6f77616e6365206973206e656564656420746f207370656e6420746865604082015269103230b4903a37b5b2b760b11b606082015260800190565b6020808252602e908201527f496e697469616c697a61626c653a20636f6e747261637420697320616c72656160408201526d191e481a5b9a5d1a585b1a5e995960921b606082015260800190565b6020808252601f908201527f4e6f7420656e6f7567682044616920746f206275792074686520746f6b656e00604082015260600190565b6020808252601d908201527f54686520646561646c696e6520686173206265656e2072656163686564000000604082015260600190565b6020808252818101527f4f776e61626c653a2063616c6c6572206973206e6f7420746865206f776e6572604082015260600190565b60208082526036908201527f417070726f76616c20697320726571756972656420746f207370656e6420746860408201527519481d1bdad95b9cc81d1bc81899481bd999995c995960521b606082015260800190565b6020808252601b908201527f596f752068617665206e6f742073656e7420616e792065746865720000000000604082015260600190565b60208082526031908201527f5468652073656c6c6572206861732072656d6f7665206170726f76616c20746f604082015270207370656e642074686520746f6b656e7360781b606082015260800190565b602080825260159082015274139bdd08195b9bdd59da08195d1a195c881cd95b9d605a1b604082015260600190565b60208082526017908201527f4f6666657220696420646f6573206e6f74206578697374000000000000000000604082015260600190565b6020808252601f908201527f5265656e7472616e637947756172643a207265656e7472616e742063616c6c00604082015260600190565b6020808252601d908201527f54686973206f6666657220686173206265656e2063616e63656c6c6564000000604082015260600190565b60008219821115611c9c57611c9c611db7565b500190565b600082611cb057611cb0611dcd565b600160ff1b821460001984141615611cca57611cca611db7565b500590565b600082611cde57611cde611dcd565b500490565b60006001600160ff1b0381841382841380821686840486111615611d0957611d09611db7565b600160ff1b84871282811687830589121615611d2757611d27611db7565b858712925087820587128484161615611d4257611d42611db7565b87850587128184161615611d5857611d58611db7565b505050929093029392505050565b6000816000190483118215151615611d8057611d80611db7565b500290565b600082821015611d9757611d97611db7565b500390565b6000600019821415611db057611db0611db7565b5060010190565b634e487b7160e01b600052601160045260246000fd5b634e487b7160e01b600052601260045260246000fdfea264697066735822122017693efb813d9ee4902533723c4072d860003bfa098784542fdfdc573d98ba8b64736f6c63430008000033",
  "linkReferences": {},
  "deployedLinkReferences": {}
}