{
  "_format": "hh-sol-artifact-1",
  "contractName": "MarketplaceV1",
  "sourceName": "contracts/MarketplaceV1.sol",
  "abi": [
    {
      "anonymous": false,
      "inputs": [
        {
          "indexed": true,
          "internalType": "address",
          "name": "previousOwner",
          "type": "address"
        },
        {
          "indexed": true,
          "internalType": "address",
          "name": "newOwner",
          "type": "address"
        }
      ],
      "name": "OwnershipTransferred",
      "type": "event"
    },
    {
      "inputs": [
        {
          "internalType": "uint256",
          "name": "_id",
          "type": "uint256"
        },
        {
          "internalType": "uint256",
          "name": "_amount",
          "type": "uint256"
        }
      ],
      "name": "buyWithDai",
      "outputs": [],
      "stateMutability": "payable",
      "type": "function"
    },
    {
      "inputs": [
        {
          "internalType": "uint256",
          "name": "_id",
          "type": "uint256"
        }
      ],
      "name": "buyWithEther",
      "outputs": [],
      "stateMutability": "payable",
      "type": "function"
    },
    {
      "inputs": [
        {
          "internalType": "uint256",
          "name": "_id",
          "type": "uint256"
        },
        {
          "internalType": "uint256",
          "name": "_amount",
          "type": "uint256"
        }
      ],
      "name": "buyWithLink",
      "outputs": [],
      "stateMutability": "payable",
      "type": "function"
    },
    {
      "inputs": [
        {
          "internalType": "uint256",
          "name": "_id",
          "type": "uint256"
        }
      ],
      "name": "cancellOffer",
      "outputs": [],
      "stateMutability": "nonpayable",
      "type": "function"
    },
    {
      "inputs": [],
      "name": "fee",
      "outputs": [
        {
          "internalType": "uint256",
          "name": "",
          "type": "uint256"
        }
      ],
      "stateMutability": "view",
      "type": "function"
    },
    {
      "inputs": [],
      "name": "getDaiPrice",
      "outputs": [
        {
          "internalType": "int256",
          "name": "",
          "type": "int256"
        }
      ],
      "stateMutability": "view",
      "type": "function"
    },
    {
      "inputs": [],
      "name": "getEthPrice",
      "outputs": [
        {
          "internalType": "int256",
          "name": "",
          "type": "int256"
        }
      ],
      "stateMutability": "view",
      "type": "function"
    },
    {
      "inputs": [],
      "name": "getLinkPrice",
      "outputs": [
        {
          "internalType": "int256",
          "name": "",
          "type": "int256"
        }
      ],
      "stateMutability": "view",
      "type": "function"
    },
    {
      "inputs": [
        {
          "internalType": "address",
          "name": "_recipient",
          "type": "address"
        }
      ],
      "name": "initialize",
      "outputs": [],
      "stateMutability": "nonpayable",
      "type": "function"
    },
    {
      "inputs": [],
      "name": "offerCount",
      "outputs": [
        {
          "internalType": "uint256",
          "name": "",
          "type": "uint256"
        }
      ],
      "stateMutability": "view",
      "type": "function"
    },
    {
      "inputs": [
        {
          "internalType": "uint256",
          "name": "",
          "type": "uint256"
        }
      ],
      "name": "offers",
      "outputs": [
        {
          "internalType": "address",
          "name": "owner",
          "type": "address"
        },
        {
          "internalType": "address",
          "name": "tokenAdress",
          "type": "address"
        },
        {
          "internalType": "uint256",
          "name": "tokenId",
          "type": "uint256"
        },
        {
          "internalType": "uint256",
          "name": "amount",
          "type": "uint256"
        },
        {
          "internalType": "uint32",
          "name": "deadline",
          "type": "uint32"
        },
        {
          "internalType": "uint32",
          "name": "usdPrice",
          "type": "uint32"
        },
        {
          "internalType": "bool",
          "name": "onSale",
          "type": "bool"
        }
      ],
      "stateMutability": "view",
      "type": "function"
    },
    {
      "inputs": [],
      "name": "owner",
      "outputs": [
        {
          "internalType": "address",
          "name": "",
          "type": "address"
        }
      ],
      "stateMutability": "view",
      "type": "function"
    },
    {
      "inputs": [
        {
          "internalType": "address",
          "name": "_tokenAdress",
          "type": "address"
        },
        {
          "internalType": "uint256",
          "name": "_tokenId",
          "type": "uint256"
        },
        {
          "internalType": "uint256",
          "name": "_amount",
          "type": "uint256"
        },
        {
          "internalType": "uint32",
          "name": "_deadline",
          "type": "uint32"
        },
        {
          "internalType": "uint32",
          "name": "_usdPrice",
          "type": "uint32"
        }
      ],
      "name": "placeOffer",
      "outputs": [],
      "stateMutability": "payable",
      "type": "function"
    },
    {
      "inputs": [],
      "name": "recipient",
      "outputs": [
        {
          "internalType": "address",
          "name": "",
          "type": "address"
        }
      ],
      "stateMutability": "view",
      "type": "function"
    },
    {
      "inputs": [],
      "name": "renounceOwnership",
      "outputs": [],
      "stateMutability": "nonpayable",
      "type": "function"
    },
    {
      "inputs": [
        {
          "internalType": "address",
          "name": "newOwner",
          "type": "address"
        }
      ],
      "name": "transferOwnership",
      "outputs": [],
      "stateMutability": "nonpayable",
      "type": "function"
    },
    {
      "inputs": [
        {
          "internalType": "uint256",
          "name": "_newFee",
          "type": "uint256"
        }
      ],
      "name": "updateFee",
      "outputs": [],
      "stateMutability": "nonpayable",
      "type": "function"
    },
    {
      "inputs": [
        {
          "internalType": "address",
          "name": "_newRecipient",
          "type": "address"
        }
      ],
      "name": "updateRecipient",
      "outputs": [],
      "stateMutability": "nonpayable",
      "type": "function"
    }
  ],
  "bytecode": "0x608060405234801561001057600080fd5b50611d60806100206000396000f3fe6080604052600436106101095760003560e01c8063715018a611610095578063c4d66de811610064578063c4d66de814610272578063ddca3f4314610292578063f2fde38b146102a7578063f46f358e146102c7578063feec756c146102da57610109565b8063715018a6146101f55780638a72ea6a1461020a5780638da5cb5b1461023d5780639012c4a81461025257610109565b80633cc4af1d116100dc5780633cc4af1d14610178578063550b9c111461019857806366546222146101ab57806366d003ac146101be57806367c9b017146101e057610109565b80630c54449d1461010e5780631115c24d146101235780632649aa161461014e5780632dddd49c14610163575b600080fd5b61012161011c366004611630565b6102fa565b005b34801561012f57600080fd5b506101386104ca565b604051610145919061180e565b60405180910390f35b34801561015a57600080fd5b506101386104d0565b34801561016f57600080fd5b50610138610564565b34801561018457600080fd5b506101216101933660046116a6565b6105b5565b6101216101a63660046116a6565b61062b565b6101216101b93660046116d6565b6109fe565b3480156101ca57600080fd5b506101d3610e4a565b604051610145919061173d565b3480156101ec57600080fd5b50610138610e59565b34801561020157600080fd5b50610121610eaa565b34801561021657600080fd5b5061022a6102253660046116a6565b610ef5565b60405161014597969594939291906117c7565b34801561024957600080fd5b506101d3610f4f565b34801561025e57600080fd5b5061012161026d3660046116a6565b610f5e565b34801561027e57600080fd5b5061012161028d36600461160f565b610fa2565b34801561029e57600080fd5b506101386110d2565b3480156102b357600080fd5b506101216102c236600461160f565b6110d8565b6101216102d53660046116d6565b611149565b3480156102e657600080fd5b506101216102f536600461160f565b61150e565b60405163e985e9c560e01b815285906001600160a01b0382169063e985e9c59061032a9033903090600401611751565b60206040518083038186803b15801561034257600080fd5b505afa158015610356573d6000803e3d6000fd5b505050506040513d601f19601f8201168201806040525081019061037a9190611686565b61039f5760405162461bcd60e51b815260040161039690611aa1565b60405180910390fd5b609a80549060006103af83611ce3565b90915550506040805160e0810182523381526001600160a01b038816602082015290810186905260608101859052608081016103f163ffffffff861642611c53565b63ffffffff908116825293841660208083019190915260016040928301819052609a54600090815260998352839020845181546001600160a01b039182166001600160a01b03199182161783559386015192820180549390911692909316919091179091559082015160028201556060820151600382015560808201516004909101805460a084015160c0909401511515600160401b0260ff60401b199487166401000000000267ffffffff00000000199490971663ffffffff1990921691909117929092169490941791909116179091555050505050565b609a5481565b600080609e60009054906101000a90046001600160a01b03166001600160a01b031663feaf968c6040518163ffffffff1660e01b815260040160a06040518083038186803b15801561052157600080fd5b505afa158015610535573d6000803e3d6000fd5b505050506040513d601f19601f8201168201806040525081019061055991906116f7565b509194505050505090565b600080609f60009054906101000a90046001600160a01b03166001600160a01b031663feaf968c6040518163ffffffff1660e01b815260040160a06040518083038186803b15801561052157600080fd5b609a548111156105d75760405162461bcd60e51b815260040161039690611bae565b6000818152609960205260409020546001600160a01b0316331461060d5760405162461bcd60e51b815260040161039690611817565b6000908152609960205260409020600401805460ff60401b19169055565b6002606554141561064e5760405162461bcd60e51b815260040161039690611be5565b6002606555609a548111156106755760405162461bcd60e51b815260040161039690611bae565b600081815260996020526040902080546001600160a01b03163314156106ad5760405162461bcd60e51b81526004016103969061185c565b6004810154600160401b900460ff166106d85760405162461bcd60e51b815260040161039690611c1c565b600481015463ffffffff164211156107025760405162461bcd60e51b815260040161039690611a35565b6001810154815460405163e985e9c560e01b81526001600160a01b0392831692839263e985e9c59261073c92909116903090600401611751565b60206040518083038186803b15801561075457600080fd5b505afa158015610768573d6000803e3d6000fd5b505050506040513d601f19601f8201168201806040525081019061078c9190611686565b6107a85760405162461bcd60e51b815260040161039690611b2e565b600034116107c85760405162461bcd60e51b815260040161039690611af7565b60006107d2610e59565b60048401546107ef9190640100000000900463ffffffff16611c6b565b9050348111156108115760405162461bcd60e51b815260040161039690611b7f565b825460028401546003850154604051637921219560e11b81526001600160a01b038681169463f242432a9461085094929091169233929060040161178f565b600060405180830381600087803b15801561086a57600080fd5b505af115801561087e573d6000803e3d6000fd5b505084546098546001600160a01b039091169250606491506108a09084611cad565b6108aa9190611c99565b6108b49083611ccc565b6040516108c09061173a565b60006040518083038185875af1925050503d80600081146108fd576040519150601f19603f3d011682016040523d82523d6000602084013e610902565b606091505b50505060048301805460ff60401b191690556097546098546001600160a01b03909116906064906109339084611cad565b61093d9190611c99565b6040516109499061173a565b60006040518083038185875af1925050503d8060008114610986576040519150601f19603f3d011682016040523d82523d6000602084013e61098b565b606091505b505050803411156109f357336109a18234611ccc565b6040516109ad9061173a565b60006040518083038185875af1925050503d80600081146109ea576040519150601f19603f3d011682016040523d82523d6000602084013e6109ef565b606091505b5050505b505060016065555050565b60026065541415610a215760405162461bcd60e51b815260040161039690611be5565b6002606555609a54821115610a485760405162461bcd60e51b815260040161039690611bae565b600082815260996020526040902080546001600160a01b0316331415610a805760405162461bcd60e51b81526004016103969061185c565b6004810154600160401b900460ff16610aab5760405162461bcd60e51b815260040161039690611c1c565b600481015463ffffffff16421115610ad55760405162461bcd60e51b815260040161039690611a35565b6001810154815460405163e985e9c560e01b81526001600160a01b0392831692839263e985e9c592610b0f92909116903090600401611751565b60206040518083038186803b158015610b2757600080fd5b505afa158015610b3b573d6000803e3d6000fd5b505050506040513d601f19601f82011682018060405250810190610b5f9190611686565b610b7b5760405162461bcd60e51b815260040161039690611b2e565b609b54604051636eb1769f60e11b815284916001600160a01b03169063dd62ed3e90610bad9033903090600401611751565b60206040518083038186803b158015610bc557600080fd5b505afa158015610bd9573d6000803e3d6000fd5b505050506040513d601f19601f82011682018060405250810190610bfd91906116be565b1015610c1b5760405162461bcd60e51b815260040161039690611966565b6000610c256104d0565b6004840154610c429190640100000000900463ffffffff16611c6b565b905083811115610c645760405162461bcd60e51b8152600401610396906119fe565b825460028401546003850154604051637921219560e11b81526001600160a01b038681169463f242432a94610ca394929091169233929060040161178f565b600060405180830381600087803b158015610cbd57600080fd5b505af1158015610cd1573d6000803e3d6000fd5b5050609b5485546098546001600160a01b0392831694506323b872dd9350339290911690606490610d029087611cad565b610d0c9190611c99565b610d169086611ccc565b6040518463ffffffff1660e01b8152600401610d349392919061176b565b602060405180830381600087803b158015610d4e57600080fd5b505af1158015610d62573d6000803e3d6000fd5b505050506040513d601f19601f82011682018060405250810190610d869190611686565b5060048301805460ff60401b19169055609b546097546098546001600160a01b03928316926323b872dd923392911690606490610dc39087611cad565b610dcd9190611c99565b6040518463ffffffff1660e01b8152600401610deb9392919061176b565b602060405180830381600087803b158015610e0557600080fd5b505af1158015610e19573d6000803e3d6000fd5b505050506040513d601f19601f82011682018060405250810190610e3d9190611686565b5050600160655550505050565b6097546001600160a01b031681565b600080609d60009054906101000a90046001600160a01b03166001600160a01b031663feaf968c6040518163ffffffff1660e01b815260040160a06040518083038186803b15801561052157600080fd5b610eb261156f565b6001600160a01b0316610ec3610f4f565b6001600160a01b031614610ee95760405162461bcd60e51b815260040161039690611a6c565b610ef36000611573565b565b609960205260009081526040902080546001820154600283015460038401546004909401546001600160a01b03938416949390921692909163ffffffff80821691640100000000810490911690600160401b900460ff1687565b6033546001600160a01b031690565b610f6661156f565b6001600160a01b0316610f77610f4f565b6001600160a01b031614610f9d5760405162461bcd60e51b815260040161039690611a6c565b609855565b600054610100900460ff1680610fbb575060005460ff16155b610fd75760405162461bcd60e51b8152600401610396906119b0565b600054610100900460ff16158015611002576000805460ff1961ff0019909116610100171660011790555b609780546001600160a01b0384166001600160a01b0319918216179091556001609855609b80548216736b175474e89094c44da98b954eedeac495271d0f179055609c8054821673514910771af9ca656af840dff83e8264ecf986ca179055609d80548216735f4ec3df9cbd43714fe2740f5e3616155c5b8419179055609e8054821673aed0c38402a5d19df6e4c03f4e2dced6e29c1ee9179055609f8054909116732c1d072e956affc0d435cb7ac38ef18d24d9127c17905580156110ce576000805461ff00191690555b5050565b60985481565b6110e061156f565b6001600160a01b03166110f1610f4f565b6001600160a01b0316146111175760405162461bcd60e51b815260040161039690611a6c565b6001600160a01b03811661113d5760405162461bcd60e51b8152600401610396906118eb565b61114681611573565b50565b6002606554141561116c5760405162461bcd60e51b815260040161039690611be5565b6002606555609a548211156111935760405162461bcd60e51b815260040161039690611bae565b600082815260996020526040902080546001600160a01b03163314156111cb5760405162461bcd60e51b81526004016103969061185c565b6004810154600160401b900460ff166111f65760405162461bcd60e51b815260040161039690611c1c565b600481015463ffffffff164211156112205760405162461bcd60e51b815260040161039690611a35565b6001810154815460405163e985e9c560e01b81526001600160a01b0392831692839263e985e9c59261125a92909116903090600401611751565b60206040518083038186803b15801561127257600080fd5b505afa158015611286573d6000803e3d6000fd5b505050506040513d601f19601f820116820180604052508101906112aa9190611686565b6112c65760405162461bcd60e51b815260040161039690611b2e565b609c54604051636eb1769f60e11b815284916001600160a01b03169063dd62ed3e906112f89033903090600401611751565b60206040518083038186803b15801561131057600080fd5b505afa158015611324573d6000803e3d6000fd5b505050506040513d601f19601f8201168201806040525081019061134891906116be565b10156113665760405162461bcd60e51b8152600401610396906118a0565b6000611370610564565b600484015461138d9190640100000000900463ffffffff16611c6b565b9050838111156113af5760405162461bcd60e51b815260040161039690611931565b825460028401546003850154604051637921219560e11b81526001600160a01b038681169463f242432a946113ee94929091169233929060040161178f565b600060405180830381600087803b15801561140857600080fd5b505af115801561141c573d6000803e3d6000fd5b5050609c5485546098546001600160a01b0392831694506323b872dd935033929091169060649061144d9087611cad565b6114579190611c99565b6114619086611ccc565b6040518463ffffffff1660e01b815260040161147f9392919061176b565b602060405180830381600087803b15801561149957600080fd5b505af11580156114ad573d6000803e3d6000fd5b505050506040513d601f19601f820116820180604052508101906114d19190611686565b5060048301805460ff60401b19169055609c546097546098546001600160a01b03928316926323b872dd923392911690606490610dc39087611cad565b61151661156f565b6001600160a01b0316611527610f4f565b6001600160a01b03161461154d5760405162461bcd60e51b815260040161039690611a6c565b609780546001600160a01b0319166001600160a01b0392909216919091179055565b3390565b603380546001600160a01b038381166001600160a01b0319831681179093556040519116919082907f8be0079c531659141344cd1fd0a4f28419497f9722a3daafe3b4186f6b6457e090600090a35050565b80356001600160a01b03811681146115dc57600080fd5b919050565b803563ffffffff811681146115dc57600080fd5b805169ffffffffffffffffffff811681146115dc57600080fd5b600060208284031215611620578081fd5b611629826115c5565b9392505050565b600080600080600060a08688031215611647578081fd5b611650866115c5565b9450602086013593506040860135925061166c606087016115e1565b915061167a608087016115e1565b90509295509295909350565b600060208284031215611697578081fd5b81518015158114611629578182fd5b6000602082840312156116b7578081fd5b5035919050565b6000602082840312156116cf578081fd5b5051919050565b600080604083850312156116e8578182fd5b50508035926020909101359150565b600080600080600060a0868803121561170e578081fd5b611717866115f5565b945060208601519350604086015192506060860151915061167a608087016115f5565b90565b6001600160a01b0391909116815260200190565b6001600160a01b0392831681529116602082015260400190565b6001600160a01b039384168152919092166020820152604081019190915260600190565b6001600160a01b0394851681529290931660208301526040820152606081019190915260a06080820181905260009082015260c00190565b6001600160a01b0397881681529590961660208601526040850193909352606084019190915263ffffffff90811660808401521660a082015290151560c082015260e00190565b90815260200190565b60208082526025908201527f596f7520617265206e6f74207468652063726561746f72206f6620746869732060408201526437b33332b960d91b606082015260800190565b60208082526024908201527f5468652073656c6c65722063616e2774206265207468652062757965722061736040820152631dd95b1b60e21b606082015260800190565b6020808252602b908201527f416c6c6f77616e6365206973206e656564656420746f207370656e642074686560408201526a103634b735903a37b5b2b760a91b606082015260800190565b60208082526026908201527f4f776e61626c653a206e6577206f776e657220697320746865207a65726f206160408201526564647265737360d01b606082015260800190565b6020808252818101527f4e6f7420656e6f756768204c696e6b20746f206275792074686520746f6b656e604082015260600190565b6020808252602a908201527f416c6c6f77616e6365206973206e656564656420746f207370656e6420746865604082015269103230b4903a37b5b2b760b11b606082015260800190565b6020808252602e908201527f496e697469616c697a61626c653a20636f6e747261637420697320616c72656160408201526d191e481a5b9a5d1a585b1a5e995960921b606082015260800190565b6020808252601f908201527f4e6f7420656e6f7567682044616920746f206275792074686520746f6b656e00604082015260600190565b6020808252601d908201527f54686520646561646c696e6520686173206265656e2072656163686564000000604082015260600190565b6020808252818101527f4f776e61626c653a2063616c6c6572206973206e6f7420746865206f776e6572604082015260600190565b60208082526036908201527f417070726f76616c20697320726571756972656420746f207370656e6420746860408201527519481d1bdad95b9cc81d1bc81899481bd999995c995960521b606082015260800190565b6020808252601b908201527f596f752068617665206e6f742073656e7420616e792065746865720000000000604082015260600190565b60208082526031908201527f5468652073656c6c6572206861732072656d6f7665206170726f76616c20746f604082015270207370656e642074686520746f6b656e7360781b606082015260800190565b602080825260159082015274139bdd08195b9bdd59da08195d1a195c881cd95b9d605a1b604082015260600190565b60208082526017908201527f4f6666657220696420646f6573206e6f74206578697374000000000000000000604082015260600190565b6020808252601f908201527f5265656e7472616e637947756172643a207265656e7472616e742063616c6c00604082015260600190565b6020808252601d908201527f54686973206f6666657220686173206265656e2063616e63656c6c6564000000604082015260600190565b60008219821115611c6657611c66611cfe565b500190565b600082611c7a57611c7a611d14565b600160ff1b821460001984141615611c9457611c94611cfe565b500590565b600082611ca857611ca8611d14565b500490565b6000816000190483118215151615611cc757611cc7611cfe565b500290565b600082821015611cde57611cde611cfe565b500390565b6000600019821415611cf757611cf7611cfe565b5060010190565b634e487b7160e01b600052601160045260246000fd5b634e487b7160e01b600052601260045260246000fdfea2646970667358221220ac5e1e0791a93be1ccaf49dd4fd0143a8d8ba0e205a0a859b3fab9414a61f74464736f6c63430008000033",
  "linkReferences": {},
  "deployedLinkReferences": {}
}